{
  "address": "0x5FbDB2315678afecb367f032d93F642f64180aa3",
  "abi": [
    {
      "inputs": [],
      "stateMutability": "nonpayable",
      "type": "constructor"
    },
    {
      "inputs": [],
      "name": "NotOwner",
      "type": "error"
    },
    {
      "inputs": [],
      "name": "Not_Enough_Funds",
      "type": "error"
    },
    {
      "inputs": [],
      "name": "Not_released_yet",
      "type": "error"
    },
    {
      "inputs": [],
      "name": "There_is_no_child_belongs_parent",
      "type": "error"
    },
    {
      "inputs": [],
      "name": "There_is_no_enough_child_balance_to_draw",
      "type": "error"
    },
    {
      "inputs": [],
      "name": "There_is_no_user",
      "type": "error"
    },
    {
      "anonymous": false,
      "inputs": [
        {
          "indexed": true,
          "internalType": "address",
          "name": "_invester",
          "type": "address"
        },
        {
          "indexed": false,
          "internalType": "uint256",
          "name": "_amount",
          "type": "uint256"
        }
      ],
      "name": "Purchase",
      "type": "event"
    },
    {
      "stateMutability": "payable",
      "type": "fallback"
    },
    {
      "inputs": [
        {
          "internalType": "address payable",
          "name": "_child",
          "type": "address"
        },
        {
          "internalType": "uint256",
          "name": "_releaseTime",
          "type": "uint256"
        },
        {
          "internalType": "string",
          "name": "_name",
          "type": "string"
        }
      ],
      "name": "addChild",
      "outputs": [],
      "stateMutability": "nonpayable",
      "type": "function"
    },
    {
      "inputs": [
        {
          "internalType": "string",
          "name": "_name",
          "type": "string"
        }
      ],
      "name": "addParent",
      "outputs": [],
      "stateMutability": "nonpayable",
      "type": "function"
    },
    {
      "inputs": [
        {
          "internalType": "address payable",
          "name": "_child",
          "type": "address"
        }
      ],
      "name": "ageCalc",
      "outputs": [
        {
          "internalType": "bool",
          "name": "",
          "type": "bool"
        }
      ],
      "stateMutability": "view",
      "type": "function"
    },
    {
      "inputs": [
        {
          "internalType": "address payable",
          "name": "_child",
          "type": "address"
        }
      ],
      "name": "fund",
      "outputs": [],
      "stateMutability": "payable",
      "type": "function"
    },
    {
      "inputs": [
        {
          "internalType": "address payable",
          "name": "_child",
          "type": "address"
        }
      ],
      "name": "getAmount",
      "outputs": [
        {
          "internalType": "uint256",
          "name": "",
          "type": "uint256"
        }
      ],
      "stateMutability": "view",
      "type": "function"
    },
    {
      "inputs": [],
      "name": "getBalance",
      "outputs": [
        {
          "internalType": "uint256",
          "name": "",
          "type": "uint256"
        }
      ],
      "stateMutability": "view",
      "type": "function"
    },
    {
      "inputs": [],
      "name": "getChild",
      "outputs": [
        {
          "components": [
            {
              "internalType": "address payable",
              "name": "Address",
              "type": "address"
            },
            {
              "internalType": "address payable",
              "name": "invester",
              "type": "address"
            },
            {
              "internalType": "uint256",
              "name": "releaseTime",
              "type": "uint256"
            },
            {
              "internalType": "uint256",
              "name": "amount",
              "type": "uint256"
            },
            {
              "internalType": "bool",
              "name": "isReleasable",
              "type": "bool"
            },
            {
              "internalType": "string",
              "name": "name",
              "type": "string"
            }
          ],
          "internalType": "struct InterFi.Child",
          "name": "",
          "type": "tuple"
        }
      ],
      "stateMutability": "view",
      "type": "function"
    },
    {
      "inputs": [],
      "name": "getChildren",
      "outputs": [
        {
          "internalType": "address[]",
          "name": "",
          "type": "address[]"
        }
      ],
      "stateMutability": "view",
      "type": "function"
    },
    {
      "inputs": [],
      "name": "getChildrenList",
      "outputs": [
        {
          "components": [
            {
              "internalType": "address payable",
              "name": "Address",
              "type": "address"
            },
            {
              "internalType": "address payable",
              "name": "invester",
              "type": "address"
            },
            {
              "internalType": "uint256",
              "name": "releaseTime",
              "type": "uint256"
            },
            {
              "internalType": "uint256",
              "name": "amount",
              "type": "uint256"
            },
            {
              "internalType": "bool",
              "name": "isReleasable",
              "type": "bool"
            },
            {
              "internalType": "string",
              "name": "name",
              "type": "string"
            }
          ],
          "internalType": "struct InterFi.Child[]",
          "name": "result",
          "type": "tuple[]"
        }
      ],
      "stateMutability": "view",
      "type": "function"
    },
    {
      "inputs": [],
      "name": "getOwner",
      "outputs": [
        {
          "internalType": "address",
          "name": "",
          "type": "address"
        }
      ],
      "stateMutability": "view",
      "type": "function"
    },
    {
      "inputs": [],
      "name": "getParent",
      "outputs": [
        {
          "components": [
            {
              "internalType": "address payable",
              "name": "Address",
              "type": "address"
            },
            {
              "internalType": "address[]",
              "name": "children",
              "type": "address[]"
            },
            {
              "internalType": "string",
              "name": "name",
              "type": "string"
            }
          ],
          "internalType": "struct InterFi.Parent",
          "name": "",
          "type": "tuple"
        }
      ],
      "stateMutability": "view",
      "type": "function"
    },
    {
      "inputs": [
        {
          "internalType": "address payable",
          "name": "_child",
          "type": "address"
        }
      ],
      "name": "getReleaseTime",
      "outputs": [
        {
          "internalType": "uint256",
          "name": "",
          "type": "uint256"
        }
      ],
      "stateMutability": "view",
      "type": "function"
    },
    {
      "inputs": [],
      "name": "getRole",
      "outputs": [
        {
          "internalType": "string",
          "name": "",
          "type": "string"
        }
      ],
      "stateMutability": "view",
      "type": "function"
    },
    {
      "inputs": [
        {
          "internalType": "address payable",
          "name": "_child",
          "type": "address"
        }
      ],
      "name": "withdrawChild",
      "outputs": [],
      "stateMutability": "payable",
      "type": "function"
    },
    {
      "inputs": [
        {
          "internalType": "address payable",
          "name": "_child",
          "type": "address"
        }
      ],
      "name": "withdrawParent",
      "outputs": [],
      "stateMutability": "payable",
      "type": "function"
    },
    {
      "stateMutability": "payable",
      "type": "receive"
    }
  ],
  "transactionHash": "0x252dbaffee331f71b9e480cf6ced3d9f623d8439d604b5086f766a000e860d89",
  "args": [],
  "numDeployments": 1,
  "solcInputHash": "a69a33eeb0d46cc7a3c69a71ab4698d6",
  "bytecode": "0x608060405234801561001057600080fd5b50336000806101000a81548173ffffffffffffffffffffffffffffffffffffffff021916908373ffffffffffffffffffffffffffffffffffffffff160217905550612c71806100606000396000f3fe6080604052600436106100ec5760003560e01c80635f17c07e1161008a578063b09df51e11610059578063b09df51e146102d2578063c4e2e054146102ee578063f5a7976714610317578063fde0817414610354576100f3565b80635f17c07e1461021457806380f760211461023f578063893d20e81461026a578063936c852d14610295576100f3565b80632a43f338116100c65780632a43f3381461017957806345cd9969146101a45780634892e8e8146101cd5780635c78ebfc146101f8576100f3565b80630cb7eb4c146100f557806312065fe014610132578063230244081461015d576100f3565b366100f357005b005b34801561010157600080fd5b5061011c60048036038101906101179190612009565b61037f565b604051610129919061204f565b60405180910390f35b34801561013e57600080fd5b506101476103d0565b604051610154919061204f565b60405180910390f35b61017760048036038101906101729190612009565b61045e565b005b34801561018557600080fd5b5061018e6106d0565b60405161019b91906121c5565b60405180910390f35b3480156101b057600080fd5b506101cb60048036038101906101c69190612348565b610929565b005b3480156101d957600080fd5b506101e2610bf4565b6040516101ef9190612487565b60405180910390f35b610212600480360381019061020d9190612009565b610cc2565b005b34801561022057600080fd5b50610229610edd565b60405161023691906125f4565b60405180910390f35b34801561024b57600080fd5b50610254611250565b60405161026191906126dc565b60405180910390f35b34801561027657600080fd5b5061027f6114b2565b60405161028c919061270d565b60405180910390f35b3480156102a157600080fd5b506102bc60048036038101906102b79190612009565b6114db565b6040516102c99190612737565b60405180910390f35b6102ec60048036038101906102e79190612009565b61155a565b005b3480156102fa57600080fd5b5061031560048036038101906103109190612752565b6118ea565b005b34801561032357600080fd5b5061033e60048036038101906103399190612009565b611a20565b60405161034b919061204f565b60405180910390f35b34801561036057600080fd5b50610369611a71565b60405161037691906127e5565b60405180910390f35b600080600160008473ffffffffffffffffffffffffffffffffffffffff1673ffffffffffffffffffffffffffffffffffffffff16815260200190815260200160002090508060020154915050919050565b60008060009054906101000a900473ffffffffffffffffffffffffffffffffffffffff1673ffffffffffffffffffffffffffffffffffffffff163373ffffffffffffffffffffffffffffffffffffffff1614610458576040517f30cd747100000000000000000000000000000000000000000000000000000000815260040160405180910390fd5b47905090565b6000600260003373ffffffffffffffffffffffffffffffffffffffff1673ffffffffffffffffffffffffffffffffffffffff1681526020019081526020016000209050600073ffffffffffffffffffffffffffffffffffffffff168160000160009054906101000a900473ffffffffffffffffffffffffffffffffffffffff1673ffffffffffffffffffffffffffffffffffffffff161415610535576040517f08c379a000000000000000000000000000000000000000000000000000000000815260040161052c90612853565b60405180910390fd5b600081600101805490509050600080600090505b828110156105dc578473ffffffffffffffffffffffffffffffffffffffff1684600101828154811061057e5761057d612873565b5b9060005260206000200160009054906101000a900473ffffffffffffffffffffffffffffffffffffffff1673ffffffffffffffffffffffffffffffffffffffff1614156105c9578091505b80806105d4906128d1565b915050610549565b5060008110610698576000600160008673ffffffffffffffffffffffffffffffffffffffff1673ffffffffffffffffffffffffffffffffffffffff16815260200190815260200160002090503373ffffffffffffffffffffffffffffffffffffffff167f2499a5330ab0979cc612135e7883ebc3cd5c9f7a8508f042540c34723348f632600160405161066f919061295f565b60405180910390a23481600301600082825461068b919061297a565b92505081905550506106ca565b6040517f7842cc7d00000000000000000000000000000000000000000000000000000000815260040160405180910390fd5b50505050565b6106d8611e59565b6000600160003373ffffffffffffffffffffffffffffffffffffffff1673ffffffffffffffffffffffffffffffffffffffff1681526020019081526020016000209050600073ffffffffffffffffffffffffffffffffffffffff168160000160009054906101000a900473ffffffffffffffffffffffffffffffffffffffff1673ffffffffffffffffffffffffffffffffffffffff16146108f457806040518060c00160405290816000820160009054906101000a900473ffffffffffffffffffffffffffffffffffffffff1673ffffffffffffffffffffffffffffffffffffffff1673ffffffffffffffffffffffffffffffffffffffff1681526020016001820160009054906101000a900473ffffffffffffffffffffffffffffffffffffffff1673ffffffffffffffffffffffffffffffffffffffff1673ffffffffffffffffffffffffffffffffffffffff16815260200160028201548152602001600382015481526020016004820160009054906101000a900460ff1615151515815260200160058201805461086a906129ff565b80601f0160208091040260200160405190810160405280929190818152602001828054610896906129ff565b80156108e35780601f106108b8576101008083540402835291602001916108e3565b820191906000526020600020905b8154815290600101906020018083116108c657829003601f168201915b505050505081525050915050610926565b6040517f5313d2d300000000000000000000000000000000000000000000000000000000815260040160405180910390fd5b90565b6000600260003373ffffffffffffffffffffffffffffffffffffffff1673ffffffffffffffffffffffffffffffffffffffff1681526020019081526020016000209050600073ffffffffffffffffffffffffffffffffffffffff168160000160009054906101000a900473ffffffffffffffffffffffffffffffffffffffff1673ffffffffffffffffffffffffffffffffffffffff161415610a00576040517f08c379a00000000000000000000000000000000000000000000000000000000081526004016109f790612853565b60405180910390fd5b6000600160008673ffffffffffffffffffffffffffffffffffffffff1673ffffffffffffffffffffffffffffffffffffffff1681526020019081526020016000209050600073ffffffffffffffffffffffffffffffffffffffff168160000160009054906101000a900473ffffffffffffffffffffffffffffffffffffffff1673ffffffffffffffffffffffffffffffffffffffff1614610ad6576040517f08c379a0000000000000000000000000000000000000000000000000000000008152600401610acd90612a7d565b60405180910390fd5b848160000160006101000a81548173ffffffffffffffffffffffffffffffffffffffff021916908373ffffffffffffffffffffffffffffffffffffffff16021790555083816002018190555060008160030181905550338160010160006101000a81548173ffffffffffffffffffffffffffffffffffffffff021916908373ffffffffffffffffffffffffffffffffffffffff16021790555082816005019080519060200190610b87929190611ebd565b5081600101859080600181540180825580915050600190039060005260206000200160009091909190916101000a81548173ffffffffffffffffffffffffffffffffffffffff021916908373ffffffffffffffffffffffffffffffffffffffff1602179055505050505050565b6060600260003373ffffffffffffffffffffffffffffffffffffffff1673ffffffffffffffffffffffffffffffffffffffff168152602001908152602001600020600101805480602002602001604051908101604052809291908181526020018280548015610cb857602002820191906000526020600020905b8160009054906101000a900473ffffffffffffffffffffffffffffffffffffffff1673ffffffffffffffffffffffffffffffffffffffff1681526020019060010190808311610c6e575b5050505050905090565b6000610ccd336114db565b9050600015158115151415610d0e576040517ff7c60f5700000000000000000000000000000000000000000000000000000000815260040160405180910390fd5b6000600160008473ffffffffffffffffffffffffffffffffffffffff1673ffffffffffffffffffffffffffffffffffffffff1681526020019081526020016000209050600073ffffffffffffffffffffffffffffffffffffffff168160000160009054906101000a900473ffffffffffffffffffffffffffffffffffffffff1673ffffffffffffffffffffffffffffffffffffffff161415610de5576040517f08c379a0000000000000000000000000000000000000000000000000000000008152600401610ddc90612b0f565b60405180910390fd5b34816003015410610ea6573373ffffffffffffffffffffffffffffffffffffffff167f2499a5330ab0979cc612135e7883ebc3cd5c9f7a8508f042540c34723348f6326001604051610e37919061295f565b60405180910390a234816003016000828254610e539190612b2f565b925050819055503373ffffffffffffffffffffffffffffffffffffffff166108fc349081150290604051600060405180830381858888f19350505050158015610ea0573d6000803e3d6000fd5b50610ed8565b6040517fbc6f361300000000000000000000000000000000000000000000000000000000815260040160405180910390fd5b505050565b60606000600260003373ffffffffffffffffffffffffffffffffffffffff1673ffffffffffffffffffffffffffffffffffffffff16815260200190815260200160002090503373ffffffffffffffffffffffffffffffffffffffff168160000160009054906101000a900473ffffffffffffffffffffffffffffffffffffffff1673ffffffffffffffffffffffffffffffffffffffff1614610fb4576040517f08c379a0000000000000000000000000000000000000000000000000000000008152600401610fab90612853565b60405180910390fd5b806001018054905067ffffffffffffffff811115610fd557610fd461221d565b5b60405190808252806020026020018201604052801561100e57816020015b610ffb611e59565b815260200190600190039081610ff35790505b50915060005b816001018054905081101561124b576001600083600101838154811061103d5761103c612873565b5b9060005260206000200160009054906101000a900473ffffffffffffffffffffffffffffffffffffffff1673ffffffffffffffffffffffffffffffffffffffff1673ffffffffffffffffffffffffffffffffffffffff1681526020019081526020016000206040518060c00160405290816000820160009054906101000a900473ffffffffffffffffffffffffffffffffffffffff1673ffffffffffffffffffffffffffffffffffffffff1673ffffffffffffffffffffffffffffffffffffffff1681526020016001820160009054906101000a900473ffffffffffffffffffffffffffffffffffffffff1673ffffffffffffffffffffffffffffffffffffffff1673ffffffffffffffffffffffffffffffffffffffff16815260200160028201548152602001600382015481526020016004820160009054906101000a900460ff16151515158152602001600582018054611198906129ff565b80601f01602080910402602001604051908101604052809291908181526020018280546111c4906129ff565b80156112115780601f106111e657610100808354040283529160200191611211565b820191906000526020600020905b8154815290600101906020018083116111f457829003601f168201915b50505050508152505083828151811061122d5761122c612873565b5b60200260200101819052508080611243906128d1565b915050611014565b505090565b611258611f43565b6000600260003373ffffffffffffffffffffffffffffffffffffffff1673ffffffffffffffffffffffffffffffffffffffff1681526020019081526020016000209050600073ffffffffffffffffffffffffffffffffffffffff168160000160009054906101000a900473ffffffffffffffffffffffffffffffffffffffff1673ffffffffffffffffffffffffffffffffffffffff161461147d57806040518060600160405290816000820160009054906101000a900473ffffffffffffffffffffffffffffffffffffffff1673ffffffffffffffffffffffffffffffffffffffff1673ffffffffffffffffffffffffffffffffffffffff168152602001600182018054806020026020016040519081016040528092919081815260200182805480156113da57602002820191906000526020600020905b8160009054906101000a900473ffffffffffffffffffffffffffffffffffffffff1673ffffffffffffffffffffffffffffffffffffffff1681526020019060010190808311611390575b505050505081526020016002820180546113f3906129ff565b80601f016020809104026020016040519081016040528092919081815260200182805461141f906129ff565b801561146c5780601f106114415761010080835404028352916020019161146c565b820191906000526020600020905b81548152906001019060200180831161144f57829003601f168201915b5050505050815250509150506114af565b6040517f5313d2d300000000000000000000000000000000000000000000000000000000815260040160405180910390fd5b90565b60008060009054906101000a900473ffffffffffffffffffffffffffffffffffffffff16905090565b60006114e642611c65565b6000600160008473ffffffffffffffffffffffffffffffffffffffff1673ffffffffffffffffffffffffffffffffffffffff168152602001908152602001600020905060008160020154905061153b81611c65565b8042111561154e57600192505050611555565b6000925050505b919050565b6000600260003373ffffffffffffffffffffffffffffffffffffffff1673ffffffffffffffffffffffffffffffffffffffff1681526020019081526020016000209050600073ffffffffffffffffffffffffffffffffffffffff168160000160009054906101000a900473ffffffffffffffffffffffffffffffffffffffff1673ffffffffffffffffffffffffffffffffffffffff161415611631576040517f08c379a000000000000000000000000000000000000000000000000000000000815260040161162890612853565b60405180910390fd5b61166f6040518060400160405280601f81526020017f2d2d2d2d2d2d2d2d2d2d2d2d2d2d2d2d2d2d2d2d2d2d2d2d2d2d2d2d2d2d2d00815250611cfe565b61167833611d97565b6116e3600160008473ffffffffffffffffffffffffffffffffffffffff1673ffffffffffffffffffffffffffffffffffffffff16815260200190815260200160002060010160009054906101000a900473ffffffffffffffffffffffffffffffffffffffff16611d97565b3373ffffffffffffffffffffffffffffffffffffffff16600160008473ffffffffffffffffffffffffffffffffffffffff1673ffffffffffffffffffffffffffffffffffffffff16815260200190815260200160002060010160009054906101000a900473ffffffffffffffffffffffffffffffffffffffff1673ffffffffffffffffffffffffffffffffffffffff16146117b3576040517f08c379a00000000000000000000000000000000000000000000000000000000081526004016117aa90612baf565b60405180910390fd5b6000600160008473ffffffffffffffffffffffffffffffffffffffff1673ffffffffffffffffffffffffffffffffffffffff16815260200190815260200160002090503373ffffffffffffffffffffffffffffffffffffffff167f2499a5330ab0979cc612135e7883ebc3cd5c9f7a8508f042540c34723348f632600160405161183d919061295f565b60405180910390a23481600301541015611883576040517f3d5f971800000000000000000000000000000000000000000000000000000000815260040160405180910390fd5b348160030160008282546118979190612b2f565b925050819055503373ffffffffffffffffffffffffffffffffffffffff166108fc349081150290604051600060405180830381858888f193505050501580156118e4573d6000803e3d6000fd5b50505050565b6000600260003373ffffffffffffffffffffffffffffffffffffffff1673ffffffffffffffffffffffffffffffffffffffff1681526020019081526020016000209050600073ffffffffffffffffffffffffffffffffffffffff168160000160009054906101000a900473ffffffffffffffffffffffffffffffffffffffff1673ffffffffffffffffffffffffffffffffffffffff16146119c0576040517f08c379a00000000000000000000000000000000000000000000000000000000081526004016119b790612c1b565b60405180910390fd5b818160020190805190602001906119d8929190611ebd565b50338160000160006101000a81548173ffffffffffffffffffffffffffffffffffffffff021916908373ffffffffffffffffffffffffffffffffffffffff1602179055505050565b600080600160008473ffffffffffffffffffffffffffffffffffffffff1673ffffffffffffffffffffffffffffffffffffffff16815260200190815260200160002090508060030154915050919050565b60606000600260003373ffffffffffffffffffffffffffffffffffffffff1673ffffffffffffffffffffffffffffffffffffffff16815260200190815260200160002090506000600160003373ffffffffffffffffffffffffffffffffffffffff1673ffffffffffffffffffffffffffffffffffffffff1681526020019081526020016000209050600073ffffffffffffffffffffffffffffffffffffffff168260000160009054906101000a900473ffffffffffffffffffffffffffffffffffffffff1673ffffffffffffffffffffffffffffffffffffffff1614611b90576040518060400160405280600681526020017f506172656e74000000000000000000000000000000000000000000000000000081525092505050611c62565b600073ffffffffffffffffffffffffffffffffffffffff168160000160009054906101000a900473ffffffffffffffffffffffffffffffffffffffff1673ffffffffffffffffffffffffffffffffffffffff1614611c27576040518060400160405280600581526020017f4368696c6400000000000000000000000000000000000000000000000000000081525092505050611c62565b6040518060400160405280600c81526020017f556e726567697374657265640000000000000000000000000000000000000000815250925050505b90565b611cfb81604051602401611c79919061204f565b6040516020818303038152906040527ff82c50f1000000000000000000000000000000000000000000000000000000007bffffffffffffffffffffffffffffffffffffffffffffffffffffffff19166020820180517bffffffffffffffffffffffffffffffffffffffffffffffffffffffff8381831617835250505050611e30565b50565b611d9481604051602401611d1291906127e5565b6040516020818303038152906040527f41304fac000000000000000000000000000000000000000000000000000000007bffffffffffffffffffffffffffffffffffffffffffffffffffffffff19166020820180517bffffffffffffffffffffffffffffffffffffffffffffffffffffffff8381831617835250505050611e30565b50565b611e2d81604051602401611dab919061270d565b6040516020818303038152906040527f2c2ecbc2000000000000000000000000000000000000000000000000000000007bffffffffffffffffffffffffffffffffffffffffffffffffffffffff19166020820180517bffffffffffffffffffffffffffffffffffffffffffffffffffffffff8381831617835250505050611e30565b50565b60008151905060006a636f6e736f6c652e6c6f679050602083016000808483855afa5050505050565b6040518060c00160405280600073ffffffffffffffffffffffffffffffffffffffff168152602001600073ffffffffffffffffffffffffffffffffffffffff1681526020016000815260200160008152602001600015158152602001606081525090565b828054611ec9906129ff565b90600052602060002090601f016020900481019282611eeb5760008555611f32565b82601f10611f0457805160ff1916838001178555611f32565b82800160010185558215611f32579182015b82811115611f31578251825591602001919060010190611f16565b5b509050611f3f9190611f7a565b5090565b6040518060600160405280600073ffffffffffffffffffffffffffffffffffffffff16815260200160608152602001606081525090565b5b80821115611f93576000816000905550600101611f7b565b5090565b6000604051905090565b600080fd5b600080fd5b600073ffffffffffffffffffffffffffffffffffffffff82169050919050565b6000611fd682611fab565b9050919050565b611fe681611fcb565b8114611ff157600080fd5b50565b60008135905061200381611fdd565b92915050565b60006020828403121561201f5761201e611fa1565b5b600061202d84828501611ff4565b91505092915050565b6000819050919050565b61204981612036565b82525050565b60006020820190506120646000830184612040565b92915050565b61207381611fcb565b82525050565b61208281612036565b82525050565b60008115159050919050565b61209d81612088565b82525050565b600081519050919050565b600082825260208201905092915050565b60005b838110156120dd5780820151818401526020810190506120c2565b838111156120ec576000848401525b50505050565b6000601f19601f8301169050919050565b600061210e826120a3565b61211881856120ae565b93506121288185602086016120bf565b612131816120f2565b840191505092915050565b600060c083016000830151612154600086018261206a565b506020830151612167602086018261206a565b50604083015161217a6040860182612079565b50606083015161218d6060860182612079565b5060808301516121a06080860182612094565b5060a083015184820360a08601526121b88282612103565b9150508091505092915050565b600060208201905081810360008301526121df818461213c565b905092915050565b6121f081612036565b81146121fb57600080fd5b50565b60008135905061220d816121e7565b92915050565b600080fd5b600080fd5b7f4e487b7100000000000000000000000000000000000000000000000000000000600052604160045260246000fd5b612255826120f2565b810181811067ffffffffffffffff821117156122745761227361221d565b5b80604052505050565b6000612287611f97565b9050612293828261224c565b919050565b600067ffffffffffffffff8211156122b3576122b261221d565b5b6122bc826120f2565b9050602081019050919050565b82818337600083830152505050565b60006122eb6122e684612298565b61227d565b90508281526020810184848401111561230757612306612218565b5b6123128482856122c9565b509392505050565b600082601f83011261232f5761232e612213565b5b813561233f8482602086016122d8565b91505092915050565b60008060006060848603121561236157612360611fa1565b5b600061236f86828701611ff4565b9350506020612380868287016121fe565b925050604084013567ffffffffffffffff8111156123a1576123a0611fa6565b5b6123ad8682870161231a565b9150509250925092565b600081519050919050565b600082825260208201905092915050565b6000819050602082019050919050565b60006123ee82611fab565b9050919050565b6123fe816123e3565b82525050565b600061241083836123f5565b60208301905092915050565b6000602082019050919050565b6000612434826123b7565b61243e81856123c2565b9350612449836123d3565b8060005b8381101561247a5781516124618882612404565b975061246c8361241c565b92505060018101905061244d565b5085935050505092915050565b600060208201905081810360008301526124a18184612429565b905092915050565b600081519050919050565b600082825260208201905092915050565b6000819050602082019050919050565b600060c0830160008301516124ed600086018261206a565b506020830151612500602086018261206a565b5060408301516125136040860182612079565b5060608301516125266060860182612079565b5060808301516125396080860182612094565b5060a083015184820360a08601526125518282612103565b9150508091505092915050565b600061256a83836124d5565b905092915050565b6000602082019050919050565b600061258a826124a9565b61259481856124b4565b9350836020820285016125a6856124c5565b8060005b858110156125e257848403895281516125c3858261255e565b94506125ce83612572565b925060208a019950506001810190506125aa565b50829750879550505050505092915050565b6000602082019050818103600083015261260e818461257f565b905092915050565b600082825260208201905092915050565b6000612632826123b7565b61263c8185612616565b9350612647836123d3565b8060005b8381101561267857815161265f8882612404565b975061266a8361241c565b92505060018101905061264b565b5085935050505092915050565b600060608301600083015161269d600086018261206a565b50602083015184820360208601526126b58282612627565b915050604083015184820360408601526126cf8282612103565b9150508091505092915050565b600060208201905081810360008301526126f68184612685565b905092915050565b612707816123e3565b82525050565b600060208201905061272260008301846126fe565b92915050565b61273181612088565b82525050565b600060208201905061274c6000830184612728565b92915050565b60006020828403121561276857612767611fa1565b5b600082013567ffffffffffffffff81111561278657612785611fa6565b5b6127928482850161231a565b91505092915050565b600082825260208201905092915050565b60006127b7826120a3565b6127c1818561279b565b93506127d18185602086016120bf565b6127da816120f2565b840191505092915050565b600060208201905081810360008301526127ff81846127ac565b905092915050565b7f54686572655f49735f4e6f5f537563685f506172656e74000000000000000000600082015250565b600061283d60178361279b565b915061284882612807565b602082019050919050565b6000602082019050818103600083015261286c81612830565b9050919050565b7f4e487b7100000000000000000000000000000000000000000000000000000000600052603260045260246000fd5b7f4e487b7100000000000000000000000000000000000000000000000000000000600052601160045260246000fd5b60006128dc82612036565b91507fffffffffffffffffffffffffffffffffffffffffffffffffffffffffffffffff82141561290f5761290e6128a2565b5b600182019050919050565b6000819050919050565b6000819050919050565b600061294961294461293f8461291a565b612924565b612036565b9050919050565b6129598161292e565b82525050565b60006020820190506129746000830184612950565b92915050565b600061298582612036565b915061299083612036565b9250827fffffffffffffffffffffffffffffffffffffffffffffffffffffffffffffffff038211156129c5576129c46128a2565b5b828201905092915050565b7f4e487b7100000000000000000000000000000000000000000000000000000000600052602260045260246000fd5b60006002820490506001821680612a1757607f821691505b60208210811415612a2b57612a2a6129d0565b5b50919050565b7f546869735f4368696c645f416c72656164795f45786973740000000000000000600082015250565b6000612a6760188361279b565b9150612a7282612a31565b602082019050919050565b60006020820190508181036000830152612a9681612a5a565b9050919050565b7f5468657265206973206e6f206368696c6420776974682074686973206164647260008201527f6573730000000000000000000000000000000000000000000000000000000000602082015250565b6000612af960238361279b565b9150612b0482612a9d565b604082019050919050565b60006020820190508181036000830152612b2881612aec565b9050919050565b6000612b3a82612036565b9150612b4583612036565b925082821015612b5857612b576128a2565b5b828203905092915050565b7f546869735f6368696c645f69735f6e6f745f62656c6f6e67735f706172656e74600082015250565b6000612b9960208361279b565b9150612ba482612b63565b602082019050919050565b60006020820190508181036000830152612bc881612b8c565b9050919050565b7f546869735f506172656e745f416c72656164795f457869737400000000000000600082015250565b6000612c0560198361279b565b9150612c1082612bcf565b602082019050919050565b60006020820190508181036000830152612c3481612bf8565b905091905056fea2646970667358221220bf894bff9c253ac972f1096115344abacaab27317e1d18bdbd2a9864ada482c064736f6c63430008090033",
  "devdoc": {
    "kind": "dev",
    "methods": {},
    "version": 1
  },
  "userdoc": {
    "kind": "user",
    "methods": {},
    "version": 1
  },
  "storageLayout": {
    "storage": [
      {
        "astId": 18,
        "contract": "contracts/interFi.sol:InterFi",
        "label": "owner",
        "offset": 0,
        "slot": "0",
        "type": "t_address"
      },
      {
        "astId": 44,
        "contract": "contracts/interFi.sol:InterFi",
        "label": "addressToChild",
        "offset": 0,
        "slot": "1",
        "type": "t_mapping(t_address,t_struct(Child)39_storage)"
      },
      {
        "astId": 49,
        "contract": "contracts/interFi.sol:InterFi",
        "label": "addressToParent",
        "offset": 0,
        "slot": "2",
        "type": "t_mapping(t_address,t_struct(Parent)26_storage)"
      }
    ],
    "types": {
      "t_address": {
        "encoding": "inplace",
        "label": "address",
        "numberOfBytes": "20"
      },
      "t_address_payable": {
        "encoding": "inplace",
        "label": "address payable",
        "numberOfBytes": "20"
      },
      "t_array(t_address)dyn_storage": {
        "base": "t_address",
        "encoding": "dynamic_array",
        "label": "address[]",
        "numberOfBytes": "32"
      },
      "t_bool": {
        "encoding": "inplace",
        "label": "bool",
        "numberOfBytes": "1"
      },
      "t_mapping(t_address,t_struct(Child)39_storage)": {
        "encoding": "mapping",
        "key": "t_address",
        "label": "mapping(address => struct InterFi.Child)",
        "numberOfBytes": "32",
        "value": "t_struct(Child)39_storage"
      },
      "t_mapping(t_address,t_struct(Parent)26_storage)": {
        "encoding": "mapping",
        "key": "t_address",
        "label": "mapping(address => struct InterFi.Parent)",
        "numberOfBytes": "32",
        "value": "t_struct(Parent)26_storage"
      },
      "t_string_storage": {
        "encoding": "bytes",
        "label": "string",
        "numberOfBytes": "32"
      },
      "t_struct(Child)39_storage": {
        "encoding": "inplace",
        "label": "struct InterFi.Child",
        "members": [
          {
            "astId": 28,
            "contract": "contracts/interFi.sol:InterFi",
            "label": "Address",
            "offset": 0,
            "slot": "0",
            "type": "t_address_payable"
          },
          {
            "astId": 30,
            "contract": "contracts/interFi.sol:InterFi",
            "label": "invester",
            "offset": 0,
            "slot": "1",
            "type": "t_address_payable"
          },
          {
            "astId": 32,
            "contract": "contracts/interFi.sol:InterFi",
            "label": "releaseTime",
            "offset": 0,
            "slot": "2",
            "type": "t_uint256"
          },
          {
            "astId": 34,
            "contract": "contracts/interFi.sol:InterFi",
            "label": "amount",
            "offset": 0,
            "slot": "3",
            "type": "t_uint256"
          },
          {
            "astId": 36,
            "contract": "contracts/interFi.sol:InterFi",
            "label": "isReleasable",
            "offset": 0,
            "slot": "4",
            "type": "t_bool"
          },
          {
            "astId": 38,
            "contract": "contracts/interFi.sol:InterFi",
            "label": "name",
            "offset": 0,
            "slot": "5",
            "type": "t_string_storage"
          }
        ],
        "numberOfBytes": "192"
      },
      "t_struct(Parent)26_storage": {
        "encoding": "inplace",
        "label": "struct InterFi.Parent",
        "members": [
          {
            "astId": 20,
            "contract": "contracts/interFi.sol:InterFi",
            "label": "Address",
            "offset": 0,
            "slot": "0",
            "type": "t_address_payable"
          },
          {
            "astId": 23,
            "contract": "contracts/interFi.sol:InterFi",
            "label": "children",
            "offset": 0,
            "slot": "1",
            "type": "t_array(t_address)dyn_storage"
          },
          {
            "astId": 25,
            "contract": "contracts/interFi.sol:InterFi",
            "label": "name",
            "offset": 0,
            "slot": "2",
            "type": "t_string_storage"
          }
        ],
        "numberOfBytes": "96"
      },
      "t_uint256": {
        "encoding": "inplace",
        "label": "uint256",
        "numberOfBytes": "32"
      }
    }
  }
}