{
  "address": "0x5FbDB2315678afecb367f032d93F642f64180aa3",
  "abi": [
    {
      "inputs": [],
      "stateMutability": "nonpayable",
      "type": "constructor"
    },
    {
      "inputs": [],
      "name": "NotOwner",
      "type": "error"
    },
    {
      "inputs": [],
      "name": "Not_Enough_Funds",
      "type": "error"
    },
    {
      "inputs": [],
      "name": "Not_released_yet",
      "type": "error"
    },
    {
      "inputs": [],
      "name": "There_is_no_child_belongs_parent",
      "type": "error"
    },
    {
      "inputs": [],
      "name": "There_is_no_enough_child_balance_to_draw",
      "type": "error"
    },
    {
      "inputs": [],
      "name": "There_is_no_user",
      "type": "error"
    },
    {
      "anonymous": false,
      "inputs": [
        {
          "indexed": true,
          "internalType": "address",
          "name": "_invester",
          "type": "address"
        },
        {
          "indexed": false,
          "internalType": "uint256",
          "name": "_amount",
          "type": "uint256"
        }
      ],
      "name": "Purchase",
      "type": "event"
    },
    {
      "stateMutability": "payable",
      "type": "fallback"
    },
    {
      "inputs": [
        {
          "internalType": "address payable",
          "name": "_child",
          "type": "address"
        },
        {
          "internalType": "uint256",
          "name": "_releaseTime",
          "type": "uint256"
        },
        {
          "internalType": "string",
          "name": "_name",
          "type": "string"
        }
      ],
      "name": "addChild",
      "outputs": [],
      "stateMutability": "nonpayable",
      "type": "function"
    },
    {
      "inputs": [
        {
          "internalType": "string",
          "name": "_name",
          "type": "string"
        }
      ],
      "name": "addParent",
      "outputs": [],
      "stateMutability": "nonpayable",
      "type": "function"
    },
    {
      "inputs": [
        {
          "internalType": "address payable",
          "name": "_child",
          "type": "address"
        }
      ],
      "name": "ageCalc",
      "outputs": [
        {
          "internalType": "bool",
          "name": "",
          "type": "bool"
        }
      ],
      "stateMutability": "view",
      "type": "function"
    },
    {
      "inputs": [
        {
          "internalType": "address payable",
          "name": "_child",
          "type": "address"
        }
      ],
      "name": "fund",
      "outputs": [],
      "stateMutability": "payable",
      "type": "function"
    },
    {
      "inputs": [
        {
          "internalType": "address payable",
          "name": "_child",
          "type": "address"
        }
      ],
      "name": "getAmount",
      "outputs": [
        {
          "internalType": "uint256",
          "name": "",
          "type": "uint256"
        }
      ],
      "stateMutability": "view",
      "type": "function"
    },
    {
      "inputs": [],
      "name": "getBalance",
      "outputs": [
        {
          "internalType": "uint256",
          "name": "",
          "type": "uint256"
        }
      ],
      "stateMutability": "view",
      "type": "function"
    },
    {
      "inputs": [],
      "name": "getChild",
      "outputs": [
        {
          "components": [
            {
              "internalType": "address payable",
              "name": "Address",
              "type": "address"
            },
            {
              "internalType": "address payable",
              "name": "invester",
              "type": "address"
            },
            {
              "internalType": "uint256",
              "name": "releaseTime",
              "type": "uint256"
            },
            {
              "internalType": "uint256",
              "name": "amount",
              "type": "uint256"
            },
            {
              "internalType": "bool",
              "name": "isReleasable",
              "type": "bool"
            },
            {
              "internalType": "string",
              "name": "name",
              "type": "string"
            }
          ],
          "internalType": "struct InterFi.Child",
          "name": "",
          "type": "tuple"
        }
      ],
      "stateMutability": "view",
      "type": "function"
    },
    {
      "inputs": [],
      "name": "getChildren",
      "outputs": [
        {
          "internalType": "address[]",
          "name": "",
          "type": "address[]"
        }
      ],
      "stateMutability": "view",
      "type": "function"
    },
    {
      "inputs": [],
      "name": "getOwner",
      "outputs": [
        {
          "internalType": "address",
          "name": "",
          "type": "address"
        }
      ],
      "stateMutability": "view",
      "type": "function"
    },
    {
      "inputs": [],
      "name": "getParent",
      "outputs": [
        {
          "components": [
            {
              "internalType": "address payable",
              "name": "Address",
              "type": "address"
            },
            {
              "internalType": "address[]",
              "name": "children",
              "type": "address[]"
            },
            {
              "internalType": "string",
              "name": "name",
              "type": "string"
            }
          ],
          "internalType": "struct InterFi.Parent",
          "name": "",
          "type": "tuple"
        }
      ],
      "stateMutability": "view",
      "type": "function"
    },
    {
      "inputs": [],
      "name": "getRole",
      "outputs": [
        {
          "internalType": "string",
          "name": "",
          "type": "string"
        }
      ],
      "stateMutability": "view",
      "type": "function"
    },
    {
      "inputs": [
        {
          "internalType": "address payable",
          "name": "_child",
          "type": "address"
        },
        {
          "internalType": "uint256",
          "name": "_amount",
          "type": "uint256"
        }
      ],
      "name": "withdrawChild",
      "outputs": [],
      "stateMutability": "payable",
      "type": "function"
    },
    {
      "inputs": [
        {
          "internalType": "address payable",
          "name": "_child",
          "type": "address"
        },
        {
          "internalType": "uint256",
          "name": "_amount",
          "type": "uint256"
        }
      ],
      "name": "withdrawParent",
      "outputs": [],
      "stateMutability": "payable",
      "type": "function"
    },
    {
      "stateMutability": "payable",
      "type": "receive"
    }
  ],
  "transactionHash": "0xb9fa6c4b284d653cb43fd90a765298e5ea13db6e881b3091bc2ef2de0d04b953",
  "args": [],
  "numDeployments": 1,
  "solcInputHash": "eefa8be70639048f4331a01dab769c83",
  "bytecode": "0x608060405234801561001057600080fd5b50336000806101000a81548173ffffffffffffffffffffffffffffffffffffffff021916908373ffffffffffffffffffffffffffffffffffffffff1602179055506124b8806100606000396000f3fe6080604052600436106100c65760003560e01c8063893d20e81161007f578063c3d0661c11610059578063c3d0661c14610244578063c4e2e05414610260578063f5a7976714610289578063fde08174146102c6576100cd565b8063893d20e8146101c0578063936c852d146101eb578063a842b36014610228576100cd565b806312065fe0146100cf57806323024408146100fa5780632a43f3381461011657806345cd9969146101415780634892e8e81461016a57806380f7602114610195576100cd565b366100cd57005b005b3480156100db57600080fd5b506100e46102f1565b6040516100f19190611990565b60405180910390f35b610114600480360381019061010f9190611a1d565b61037f565b005b34801561012257600080fd5b5061012b6105f1565b6040516101389190611ba5565b60405180910390f35b34801561014d57600080fd5b5061016860048036038101906101639190611d28565b61084a565b005b34801561017657600080fd5b5061017f610b15565b60405161018c9190611e67565b60405180910390f35b3480156101a157600080fd5b506101aa610be3565b6040516101b79190611f4f565b60405180910390f35b3480156101cc57600080fd5b506101d5610e45565b6040516101e29190611f80565b60405180910390f35b3480156101f757600080fd5b50610212600480360381019061020d9190611a1d565b610e6e565b60405161021f9190611faa565b60405180910390f35b610242600480360381019061023d9190611fc5565b610eed565b005b61025e60048036038101906102599190611fc5565b6111e0565b005b34801561026c57600080fd5b5061028760048036038101906102829190612005565b6113fc565b005b34801561029557600080fd5b506102b060048036038101906102ab9190611a1d565b611532565b6040516102bd9190611990565b60405180910390f35b3480156102d257600080fd5b506102db611583565b6040516102e89190612098565b60405180910390f35b60008060009054906101000a900473ffffffffffffffffffffffffffffffffffffffff1673ffffffffffffffffffffffffffffffffffffffff163373ffffffffffffffffffffffffffffffffffffffff1614610379576040517f30cd747100000000000000000000000000000000000000000000000000000000815260040160405180910390fd5b47905090565b6000600260003373ffffffffffffffffffffffffffffffffffffffff1673ffffffffffffffffffffffffffffffffffffffff1681526020019081526020016000209050600073ffffffffffffffffffffffffffffffffffffffff168160000160009054906101000a900473ffffffffffffffffffffffffffffffffffffffff1673ffffffffffffffffffffffffffffffffffffffff161415610456576040517f08c379a000000000000000000000000000000000000000000000000000000000815260040161044d90612106565b60405180910390fd5b600081600101805490509050600080600090505b828110156104fd578473ffffffffffffffffffffffffffffffffffffffff1684600101828154811061049f5761049e612126565b5b9060005260206000200160009054906101000a900473ffffffffffffffffffffffffffffffffffffffff1673ffffffffffffffffffffffffffffffffffffffff1614156104ea578091505b80806104f590612184565b91505061046a565b50600081106105b9576000600160008673ffffffffffffffffffffffffffffffffffffffff1673ffffffffffffffffffffffffffffffffffffffff16815260200190815260200160002090503373ffffffffffffffffffffffffffffffffffffffff167f2499a5330ab0979cc612135e7883ebc3cd5c9f7a8508f042540c34723348f63260016040516105909190612212565b60405180910390a2348160030160008282546105ac919061222d565b92505081905550506105eb565b6040517f7842cc7d00000000000000000000000000000000000000000000000000000000815260040160405180910390fd5b50505050565b6105f9611839565b6000600160003373ffffffffffffffffffffffffffffffffffffffff1673ffffffffffffffffffffffffffffffffffffffff1681526020019081526020016000209050600073ffffffffffffffffffffffffffffffffffffffff168160000160009054906101000a900473ffffffffffffffffffffffffffffffffffffffff1673ffffffffffffffffffffffffffffffffffffffff161461081557806040518060c00160405290816000820160009054906101000a900473ffffffffffffffffffffffffffffffffffffffff1673ffffffffffffffffffffffffffffffffffffffff1673ffffffffffffffffffffffffffffffffffffffff1681526020016001820160009054906101000a900473ffffffffffffffffffffffffffffffffffffffff1673ffffffffffffffffffffffffffffffffffffffff1673ffffffffffffffffffffffffffffffffffffffff16815260200160028201548152602001600382015481526020016004820160009054906101000a900460ff1615151515815260200160058201805461078b906122b2565b80601f01602080910402602001604051908101604052809291908181526020018280546107b7906122b2565b80156108045780601f106107d957610100808354040283529160200191610804565b820191906000526020600020905b8154815290600101906020018083116107e757829003601f168201915b505050505081525050915050610847565b6040517f5313d2d300000000000000000000000000000000000000000000000000000000815260040160405180910390fd5b90565b6000600260003373ffffffffffffffffffffffffffffffffffffffff1673ffffffffffffffffffffffffffffffffffffffff1681526020019081526020016000209050600073ffffffffffffffffffffffffffffffffffffffff168160000160009054906101000a900473ffffffffffffffffffffffffffffffffffffffff1673ffffffffffffffffffffffffffffffffffffffff161415610921576040517f08c379a000000000000000000000000000000000000000000000000000000000815260040161091890612106565b60405180910390fd5b6000600160008673ffffffffffffffffffffffffffffffffffffffff1673ffffffffffffffffffffffffffffffffffffffff1681526020019081526020016000209050600073ffffffffffffffffffffffffffffffffffffffff168160000160009054906101000a900473ffffffffffffffffffffffffffffffffffffffff1673ffffffffffffffffffffffffffffffffffffffff16146109f7576040517f08c379a00000000000000000000000000000000000000000000000000000000081526004016109ee90612330565b60405180910390fd5b848160000160006101000a81548173ffffffffffffffffffffffffffffffffffffffff021916908373ffffffffffffffffffffffffffffffffffffffff16021790555083816002018190555060008160030181905550338160010160006101000a81548173ffffffffffffffffffffffffffffffffffffffff021916908373ffffffffffffffffffffffffffffffffffffffff16021790555082816005019080519060200190610aa892919061189d565b5081600101859080600181540180825580915050600190039060005260206000200160009091909190916101000a81548173ffffffffffffffffffffffffffffffffffffffff021916908373ffffffffffffffffffffffffffffffffffffffff1602179055505050505050565b6060600260003373ffffffffffffffffffffffffffffffffffffffff1673ffffffffffffffffffffffffffffffffffffffff168152602001908152602001600020600101805480602002602001604051908101604052809291908181526020018280548015610bd957602002820191906000526020600020905b8160009054906101000a900473ffffffffffffffffffffffffffffffffffffffff1673ffffffffffffffffffffffffffffffffffffffff1681526020019060010190808311610b8f575b5050505050905090565b610beb611923565b6000600260003373ffffffffffffffffffffffffffffffffffffffff1673ffffffffffffffffffffffffffffffffffffffff1681526020019081526020016000209050600073ffffffffffffffffffffffffffffffffffffffff168160000160009054906101000a900473ffffffffffffffffffffffffffffffffffffffff1673ffffffffffffffffffffffffffffffffffffffff1614610e1057806040518060600160405290816000820160009054906101000a900473ffffffffffffffffffffffffffffffffffffffff1673ffffffffffffffffffffffffffffffffffffffff1673ffffffffffffffffffffffffffffffffffffffff16815260200160018201805480602002602001604051908101604052809291908181526020018280548015610d6d57602002820191906000526020600020905b8160009054906101000a900473ffffffffffffffffffffffffffffffffffffffff1673ffffffffffffffffffffffffffffffffffffffff1681526020019060010190808311610d23575b50505050508152602001600282018054610d86906122b2565b80601f0160208091040260200160405190810160405280929190818152602001828054610db2906122b2565b8015610dff5780601f10610dd457610100808354040283529160200191610dff565b820191906000526020600020905b815481529060010190602001808311610de257829003601f168201915b505050505081525050915050610e42565b6040517f5313d2d300000000000000000000000000000000000000000000000000000000815260040160405180910390fd5b90565b60008060009054906101000a900473ffffffffffffffffffffffffffffffffffffffff16905090565b6000610e7942611777565b6000600160008473ffffffffffffffffffffffffffffffffffffffff1673ffffffffffffffffffffffffffffffffffffffff1681526020019081526020016000209050600081600201549050610ece81611777565b80421115610ee157600192505050610ee8565b6000925050505b919050565b6000600260003373ffffffffffffffffffffffffffffffffffffffff1673ffffffffffffffffffffffffffffffffffffffff1681526020019081526020016000209050600073ffffffffffffffffffffffffffffffffffffffff168160000160009054906101000a900473ffffffffffffffffffffffffffffffffffffffff1673ffffffffffffffffffffffffffffffffffffffff161415610fc4576040517f08c379a0000000000000000000000000000000000000000000000000000000008152600401610fbb90612106565b60405180910390fd5b6000816001018054905090506000805b82811015611068578573ffffffffffffffffffffffffffffffffffffffff1684600101828154811061100957611008612126565b5b9060005260206000200160009054906101000a900473ffffffffffffffffffffffffffffffffffffffff1673ffffffffffffffffffffffffffffffffffffffff16141561105557600191505b808061106090612184565b915050610fd4565b5080156111a7576000600160008773ffffffffffffffffffffffffffffffffffffffff1673ffffffffffffffffffffffffffffffffffffffff16815260200190815260200160002090503373ffffffffffffffffffffffffffffffffffffffff167f2499a5330ab0979cc612135e7883ebc3cd5c9f7a8508f042540c34723348f63260016040516110f99190612212565b60405180910390a2848160030154101561113f576040517f3d5f971800000000000000000000000000000000000000000000000000000000815260040160405180910390fd5b848160030160008282546111539190612350565b925050819055503373ffffffffffffffffffffffffffffffffffffffff166108fc869081150290604051600060405180830381858888f193505050501580156111a0573d6000803e3d6000fd5b50506111d9565b6040517f7842cc7d00000000000000000000000000000000000000000000000000000000815260040160405180910390fd5b5050505050565b60006111eb33610e6e565b905060001515811515141561122c576040517ff7c60f5700000000000000000000000000000000000000000000000000000000815260040160405180910390fd5b6000600160008573ffffffffffffffffffffffffffffffffffffffff1673ffffffffffffffffffffffffffffffffffffffff1681526020019081526020016000209050600073ffffffffffffffffffffffffffffffffffffffff168160000160009054906101000a900473ffffffffffffffffffffffffffffffffffffffff1673ffffffffffffffffffffffffffffffffffffffff161415611303576040517f08c379a00000000000000000000000000000000000000000000000000000000081526004016112fa906123f6565b60405180910390fd5b828160030154106113c4573373ffffffffffffffffffffffffffffffffffffffff167f2499a5330ab0979cc612135e7883ebc3cd5c9f7a8508f042540c34723348f63260016040516113559190612212565b60405180910390a2828160030160008282546113719190612350565b925050819055503373ffffffffffffffffffffffffffffffffffffffff166108fc849081150290604051600060405180830381858888f193505050501580156113be573d6000803e3d6000fd5b506113f6565b6040517fbc6f361300000000000000000000000000000000000000000000000000000000815260040160405180910390fd5b50505050565b6000600260003373ffffffffffffffffffffffffffffffffffffffff1673ffffffffffffffffffffffffffffffffffffffff1681526020019081526020016000209050600073ffffffffffffffffffffffffffffffffffffffff168160000160009054906101000a900473ffffffffffffffffffffffffffffffffffffffff1673ffffffffffffffffffffffffffffffffffffffff16146114d2576040517f08c379a00000000000000000000000000000000000000000000000000000000081526004016114c990612462565b60405180910390fd5b818160020190805190602001906114ea92919061189d565b50338160000160006101000a81548173ffffffffffffffffffffffffffffffffffffffff021916908373ffffffffffffffffffffffffffffffffffffffff1602179055505050565b600080600160008473ffffffffffffffffffffffffffffffffffffffff1673ffffffffffffffffffffffffffffffffffffffff16815260200190815260200160002090508060030154915050919050565b60606000600260003373ffffffffffffffffffffffffffffffffffffffff1673ffffffffffffffffffffffffffffffffffffffff16815260200190815260200160002090506000600160003373ffffffffffffffffffffffffffffffffffffffff1673ffffffffffffffffffffffffffffffffffffffff1681526020019081526020016000209050600073ffffffffffffffffffffffffffffffffffffffff168260000160009054906101000a900473ffffffffffffffffffffffffffffffffffffffff1673ffffffffffffffffffffffffffffffffffffffff16146116a2576040518060400160405280600681526020017f506172656e74000000000000000000000000000000000000000000000000000081525092505050611774565b600073ffffffffffffffffffffffffffffffffffffffff168160000160009054906101000a900473ffffffffffffffffffffffffffffffffffffffff1673ffffffffffffffffffffffffffffffffffffffff1614611739576040518060400160405280600581526020017f4368696c6400000000000000000000000000000000000000000000000000000081525092505050611774565b6040518060400160405280600c81526020017f556e726567697374657265640000000000000000000000000000000000000000815250925050505b90565b61180d8160405160240161178b9190611990565b6040516020818303038152906040527ff82c50f1000000000000000000000000000000000000000000000000000000007bffffffffffffffffffffffffffffffffffffffffffffffffffffffff19166020820180517bffffffffffffffffffffffffffffffffffffffffffffffffffffffff8381831617835250505050611810565b50565b60008151905060006a636f6e736f6c652e6c6f679050602083016000808483855afa5050505050565b6040518060c00160405280600073ffffffffffffffffffffffffffffffffffffffff168152602001600073ffffffffffffffffffffffffffffffffffffffff1681526020016000815260200160008152602001600015158152602001606081525090565b8280546118a9906122b2565b90600052602060002090601f0160209004810192826118cb5760008555611912565b82601f106118e457805160ff1916838001178555611912565b82800160010185558215611912579182015b828111156119115782518255916020019190600101906118f6565b5b50905061191f919061195a565b5090565b6040518060600160405280600073ffffffffffffffffffffffffffffffffffffffff16815260200160608152602001606081525090565b5b8082111561197357600081600090555060010161195b565b5090565b6000819050919050565b61198a81611977565b82525050565b60006020820190506119a56000830184611981565b92915050565b6000604051905090565b600080fd5b600080fd5b600073ffffffffffffffffffffffffffffffffffffffff82169050919050565b60006119ea826119bf565b9050919050565b6119fa816119df565b8114611a0557600080fd5b50565b600081359050611a17816119f1565b92915050565b600060208284031215611a3357611a326119b5565b5b6000611a4184828501611a08565b91505092915050565b611a53816119df565b82525050565b611a6281611977565b82525050565b60008115159050919050565b611a7d81611a68565b82525050565b600081519050919050565b600082825260208201905092915050565b60005b83811015611abd578082015181840152602081019050611aa2565b83811115611acc576000848401525b50505050565b6000601f19601f8301169050919050565b6000611aee82611a83565b611af88185611a8e565b9350611b08818560208601611a9f565b611b1181611ad2565b840191505092915050565b600060c083016000830151611b346000860182611a4a565b506020830151611b476020860182611a4a565b506040830151611b5a6040860182611a59565b506060830151611b6d6060860182611a59565b506080830151611b806080860182611a74565b5060a083015184820360a0860152611b988282611ae3565b9150508091505092915050565b60006020820190508181036000830152611bbf8184611b1c565b905092915050565b611bd081611977565b8114611bdb57600080fd5b50565b600081359050611bed81611bc7565b92915050565b600080fd5b600080fd5b7f4e487b7100000000000000000000000000000000000000000000000000000000600052604160045260246000fd5b611c3582611ad2565b810181811067ffffffffffffffff82111715611c5457611c53611bfd565b5b80604052505050565b6000611c676119ab565b9050611c738282611c2c565b919050565b600067ffffffffffffffff821115611c9357611c92611bfd565b5b611c9c82611ad2565b9050602081019050919050565b82818337600083830152505050565b6000611ccb611cc684611c78565b611c5d565b905082815260208101848484011115611ce757611ce6611bf8565b5b611cf2848285611ca9565b509392505050565b600082601f830112611d0f57611d0e611bf3565b5b8135611d1f848260208601611cb8565b91505092915050565b600080600060608486031215611d4157611d406119b5565b5b6000611d4f86828701611a08565b9350506020611d6086828701611bde565b925050604084013567ffffffffffffffff811115611d8157611d806119ba565b5b611d8d86828701611cfa565b9150509250925092565b600081519050919050565b600082825260208201905092915050565b6000819050602082019050919050565b6000611dce826119bf565b9050919050565b611dde81611dc3565b82525050565b6000611df08383611dd5565b60208301905092915050565b6000602082019050919050565b6000611e1482611d97565b611e1e8185611da2565b9350611e2983611db3565b8060005b83811015611e5a578151611e418882611de4565b9750611e4c83611dfc565b925050600181019050611e2d565b5085935050505092915050565b60006020820190508181036000830152611e818184611e09565b905092915050565b600082825260208201905092915050565b6000611ea582611d97565b611eaf8185611e89565b9350611eba83611db3565b8060005b83811015611eeb578151611ed28882611de4565b9750611edd83611dfc565b925050600181019050611ebe565b5085935050505092915050565b6000606083016000830151611f106000860182611a4a565b5060208301518482036020860152611f288282611e9a565b91505060408301518482036040860152611f428282611ae3565b9150508091505092915050565b60006020820190508181036000830152611f698184611ef8565b905092915050565b611f7a81611dc3565b82525050565b6000602082019050611f956000830184611f71565b92915050565b611fa481611a68565b82525050565b6000602082019050611fbf6000830184611f9b565b92915050565b60008060408385031215611fdc57611fdb6119b5565b5b6000611fea85828601611a08565b9250506020611ffb85828601611bde565b9150509250929050565b60006020828403121561201b5761201a6119b5565b5b600082013567ffffffffffffffff811115612039576120386119ba565b5b61204584828501611cfa565b91505092915050565b600082825260208201905092915050565b600061206a82611a83565b612074818561204e565b9350612084818560208601611a9f565b61208d81611ad2565b840191505092915050565b600060208201905081810360008301526120b2818461205f565b905092915050565b7f54686572655f49735f4e6f5f537563685f506172656e74000000000000000000600082015250565b60006120f060178361204e565b91506120fb826120ba565b602082019050919050565b6000602082019050818103600083015261211f816120e3565b9050919050565b7f4e487b7100000000000000000000000000000000000000000000000000000000600052603260045260246000fd5b7f4e487b7100000000000000000000000000000000000000000000000000000000600052601160045260246000fd5b600061218f82611977565b91507fffffffffffffffffffffffffffffffffffffffffffffffffffffffffffffffff8214156121c2576121c1612155565b5b600182019050919050565b6000819050919050565b6000819050919050565b60006121fc6121f76121f2846121cd565b6121d7565b611977565b9050919050565b61220c816121e1565b82525050565b60006020820190506122276000830184612203565b92915050565b600061223882611977565b915061224383611977565b9250827fffffffffffffffffffffffffffffffffffffffffffffffffffffffffffffffff0382111561227857612277612155565b5b828201905092915050565b7f4e487b7100000000000000000000000000000000000000000000000000000000600052602260045260246000fd5b600060028204905060018216806122ca57607f821691505b602082108114156122de576122dd612283565b5b50919050565b7f546869735f4368696c645f416c72656164795f45786973740000000000000000600082015250565b600061231a60188361204e565b9150612325826122e4565b602082019050919050565b600060208201905081810360008301526123498161230d565b9050919050565b600061235b82611977565b915061236683611977565b92508282101561237957612378612155565b5b828203905092915050565b7f5468657265206973206e6f206368696c6420776974682074686973206164647260008201527f6573730000000000000000000000000000000000000000000000000000000000602082015250565b60006123e060238361204e565b91506123eb82612384565b604082019050919050565b6000602082019050818103600083015261240f816123d3565b9050919050565b7f546869735f506172656e745f416c72656164795f457869737400000000000000600082015250565b600061244c60198361204e565b915061245782612416565b602082019050919050565b6000602082019050818103600083015261247b8161243f565b905091905056fea2646970667358221220eca2e959c345f06c3849f30efc2c02777b46b43387477ffebae0f57f798216b064736f6c63430008090033",
  "devdoc": {
    "kind": "dev",
    "methods": {},
    "version": 1
  },
  "userdoc": {
    "kind": "user",
    "methods": {},
    "version": 1
  },
  "storageLayout": {
    "storage": [
      {
        "astId": 18,
        "contract": "contracts/interFi.sol:InterFi",
        "label": "owner",
        "offset": 0,
        "slot": "0",
        "type": "t_address"
      },
      {
        "astId": 44,
        "contract": "contracts/interFi.sol:InterFi",
        "label": "addressToChild",
        "offset": 0,
        "slot": "1",
        "type": "t_mapping(t_address,t_struct(Child)39_storage)"
      },
      {
        "astId": 49,
        "contract": "contracts/interFi.sol:InterFi",
        "label": "addressToParent",
        "offset": 0,
        "slot": "2",
        "type": "t_mapping(t_address,t_struct(Parent)26_storage)"
      }
    ],
    "types": {
      "t_address": {
        "encoding": "inplace",
        "label": "address",
        "numberOfBytes": "20"
      },
      "t_address_payable": {
        "encoding": "inplace",
        "label": "address payable",
        "numberOfBytes": "20"
      },
      "t_array(t_address)dyn_storage": {
        "base": "t_address",
        "encoding": "dynamic_array",
        "label": "address[]",
        "numberOfBytes": "32"
      },
      "t_bool": {
        "encoding": "inplace",
        "label": "bool",
        "numberOfBytes": "1"
      },
      "t_mapping(t_address,t_struct(Child)39_storage)": {
        "encoding": "mapping",
        "key": "t_address",
        "label": "mapping(address => struct InterFi.Child)",
        "numberOfBytes": "32",
        "value": "t_struct(Child)39_storage"
      },
      "t_mapping(t_address,t_struct(Parent)26_storage)": {
        "encoding": "mapping",
        "key": "t_address",
        "label": "mapping(address => struct InterFi.Parent)",
        "numberOfBytes": "32",
        "value": "t_struct(Parent)26_storage"
      },
      "t_string_storage": {
        "encoding": "bytes",
        "label": "string",
        "numberOfBytes": "32"
      },
      "t_struct(Child)39_storage": {
        "encoding": "inplace",
        "label": "struct InterFi.Child",
        "members": [
          {
            "astId": 28,
            "contract": "contracts/interFi.sol:InterFi",
            "label": "Address",
            "offset": 0,
            "slot": "0",
            "type": "t_address_payable"
          },
          {
            "astId": 30,
            "contract": "contracts/interFi.sol:InterFi",
            "label": "invester",
            "offset": 0,
            "slot": "1",
            "type": "t_address_payable"
          },
          {
            "astId": 32,
            "contract": "contracts/interFi.sol:InterFi",
            "label": "releaseTime",
            "offset": 0,
            "slot": "2",
            "type": "t_uint256"
          },
          {
            "astId": 34,
            "contract": "contracts/interFi.sol:InterFi",
            "label": "amount",
            "offset": 0,
            "slot": "3",
            "type": "t_uint256"
          },
          {
            "astId": 36,
            "contract": "contracts/interFi.sol:InterFi",
            "label": "isReleasable",
            "offset": 0,
            "slot": "4",
            "type": "t_bool"
          },
          {
            "astId": 38,
            "contract": "contracts/interFi.sol:InterFi",
            "label": "name",
            "offset": 0,
            "slot": "5",
            "type": "t_string_storage"
          }
        ],
        "numberOfBytes": "192"
      },
      "t_struct(Parent)26_storage": {
        "encoding": "inplace",
        "label": "struct InterFi.Parent",
        "members": [
          {
            "astId": 20,
            "contract": "contracts/interFi.sol:InterFi",
            "label": "Address",
            "offset": 0,
            "slot": "0",
            "type": "t_address_payable"
          },
          {
            "astId": 23,
            "contract": "contracts/interFi.sol:InterFi",
            "label": "children",
            "offset": 0,
            "slot": "1",
            "type": "t_array(t_address)dyn_storage"
          },
          {
            "astId": 25,
            "contract": "contracts/interFi.sol:InterFi",
            "label": "name",
            "offset": 0,
            "slot": "2",
            "type": "t_string_storage"
          }
        ],
        "numberOfBytes": "96"
      },
      "t_uint256": {
        "encoding": "inplace",
        "label": "uint256",
        "numberOfBytes": "32"
      }
    }
  }
}