{
  "address": "0x2cc2A09b3822d6c30C6b437a031Ef4657f542348",
  "abi": [
    {
      "inputs": [],
      "stateMutability": "nonpayable",
      "type": "constructor"
    },
    {
      "inputs": [],
      "name": "NotOwner",
      "type": "error"
    },
    {
      "inputs": [],
      "name": "Not_Enough_Funds",
      "type": "error"
    },
    {
      "inputs": [],
      "name": "Not_released_yet",
      "type": "error"
    },
    {
      "inputs": [],
      "name": "There_is_no_child_belongs_parent",
      "type": "error"
    },
    {
      "inputs": [],
      "name": "There_is_no_enough_child_balance_to_draw",
      "type": "error"
    },
    {
      "inputs": [],
      "name": "There_is_no_user",
      "type": "error"
    },
    {
      "anonymous": false,
      "inputs": [
        {
          "indexed": true,
          "internalType": "address",
          "name": "_invester",
          "type": "address"
        },
        {
          "indexed": false,
          "internalType": "uint256",
          "name": "_amount",
          "type": "uint256"
        }
      ],
      "name": "Purchase",
      "type": "event"
    },
    {
      "stateMutability": "payable",
      "type": "fallback"
    },
    {
      "inputs": [
        {
          "internalType": "address payable",
          "name": "_child",
          "type": "address"
        },
        {
          "internalType": "uint256",
          "name": "_releaseTime",
          "type": "uint256"
        },
        {
          "internalType": "string",
          "name": "_name",
          "type": "string"
        }
      ],
      "name": "addChild",
      "outputs": [],
      "stateMutability": "nonpayable",
      "type": "function"
    },
    {
      "inputs": [
        {
          "internalType": "string",
          "name": "_name",
          "type": "string"
        }
      ],
      "name": "addParent",
      "outputs": [],
      "stateMutability": "nonpayable",
      "type": "function"
    },
    {
      "inputs": [
        {
          "internalType": "address payable",
          "name": "_child",
          "type": "address"
        }
      ],
      "name": "ageCalc",
      "outputs": [
        {
          "internalType": "bool",
          "name": "",
          "type": "bool"
        }
      ],
      "stateMutability": "view",
      "type": "function"
    },
    {
      "inputs": [
        {
          "internalType": "address payable",
          "name": "_child",
          "type": "address"
        }
      ],
      "name": "fund",
      "outputs": [],
      "stateMutability": "payable",
      "type": "function"
    },
    {
      "inputs": [
        {
          "internalType": "address payable",
          "name": "_child",
          "type": "address"
        }
      ],
      "name": "getAmount",
      "outputs": [
        {
          "internalType": "uint256",
          "name": "",
          "type": "uint256"
        }
      ],
      "stateMutability": "view",
      "type": "function"
    },
    {
      "inputs": [],
      "name": "getBalance",
      "outputs": [
        {
          "internalType": "uint256",
          "name": "",
          "type": "uint256"
        }
      ],
      "stateMutability": "view",
      "type": "function"
    },
    {
      "inputs": [],
      "name": "getChild",
      "outputs": [
        {
          "components": [
            {
              "internalType": "address payable",
              "name": "Address",
              "type": "address"
            },
            {
              "internalType": "address payable",
              "name": "invester",
              "type": "address"
            },
            {
              "internalType": "uint256",
              "name": "releaseTime",
              "type": "uint256"
            },
            {
              "internalType": "uint256",
              "name": "amount",
              "type": "uint256"
            },
            {
              "internalType": "bool",
              "name": "isReleasable",
              "type": "bool"
            },
            {
              "internalType": "string",
              "name": "name",
              "type": "string"
            }
          ],
          "internalType": "struct InterFi.Child",
          "name": "",
          "type": "tuple"
        }
      ],
      "stateMutability": "view",
      "type": "function"
    },
    {
      "inputs": [],
      "name": "getChildren",
      "outputs": [
        {
          "internalType": "address[]",
          "name": "",
          "type": "address[]"
        }
      ],
      "stateMutability": "view",
      "type": "function"
    },
    {
      "inputs": [],
      "name": "getOwner",
      "outputs": [
        {
          "internalType": "address",
          "name": "",
          "type": "address"
        }
      ],
      "stateMutability": "view",
      "type": "function"
    },
    {
      "inputs": [],
      "name": "getParent",
      "outputs": [
        {
          "components": [
            {
              "internalType": "address payable",
              "name": "Address",
              "type": "address"
            },
            {
              "internalType": "address[]",
              "name": "children",
              "type": "address[]"
            },
            {
              "internalType": "string",
              "name": "name",
              "type": "string"
            }
          ],
          "internalType": "struct InterFi.Parent",
          "name": "",
          "type": "tuple"
        }
      ],
      "stateMutability": "view",
      "type": "function"
    },
    {
      "inputs": [],
      "name": "getRole",
      "outputs": [
        {
          "internalType": "string",
          "name": "",
          "type": "string"
        }
      ],
      "stateMutability": "view",
      "type": "function"
    },
    {
      "inputs": [
        {
          "internalType": "address payable",
          "name": "_child",
          "type": "address"
        },
        {
          "internalType": "uint256",
          "name": "_amount",
          "type": "uint256"
        }
      ],
      "name": "withdrawChild",
      "outputs": [],
      "stateMutability": "payable",
      "type": "function"
    },
    {
      "inputs": [
        {
          "internalType": "address payable",
          "name": "_child",
          "type": "address"
        },
        {
          "internalType": "uint256",
          "name": "_amount",
          "type": "uint256"
        }
      ],
      "name": "withdrawParent",
      "outputs": [],
      "stateMutability": "payable",
      "type": "function"
    },
    {
      "stateMutability": "payable",
      "type": "receive"
    }
  ],
  "transactionHash": "0x6fa86b86871c136e529d8b0d552c4d1b3f504e8abb1175414a9590851557f98b",
  "args": [],
  "numDeployments": 4,
  "solcInputHash": "21caccfa24912d36e2c8ef838862ede6",
  "bytecode": "0x608060405234801561001057600080fd5b50336000806101000a81548173ffffffffffffffffffffffffffffffffffffffff021916908373ffffffffffffffffffffffffffffffffffffffff1602179055506126f4806100606000396000f3fe6080604052600436106100c65760003560e01c8063893d20e81161007f578063c3d0661c11610059578063c3d0661c14610244578063c4e2e05414610260578063f5a7976714610289578063fde08174146102c6576100cd565b8063893d20e8146101c0578063936c852d146101eb578063a842b36014610228576100cd565b806312065fe0146100cf57806323024408146100fa5780632a43f3381461011657806345cd9969146101415780634892e8e81461016a57806380f7602114610195576100cd565b366100cd57005b005b3480156100db57600080fd5b506100e46102f1565b6040516100f19190611b60565b60405180910390f35b610114600480360381019061010f9190611bed565b61037f565b005b34801561012257600080fd5b5061012b6105f1565b6040516101389190611d75565b60405180910390f35b34801561014d57600080fd5b5061016860048036038101906101639190611ef8565b61084a565b005b34801561017657600080fd5b5061017f610b15565b60405161018c9190612037565b60405180910390f35b3480156101a157600080fd5b506101aa610be3565b6040516101b7919061211f565b60405180910390f35b3480156101cc57600080fd5b506101d5610e45565b6040516101e29190612150565b60405180910390f35b3480156101f757600080fd5b50610212600480360381019061020d9190611bed565b610e6e565b60405161021f919061217a565b60405180910390f35b610242600480360381019061023d9190612195565b610eed565b005b61025e60048036038101906102599190612195565b61127e565b005b34801561026c57600080fd5b50610287600480360381019061028291906121d5565b61149a565b005b34801561029557600080fd5b506102b060048036038101906102ab9190611bed565b6115d0565b6040516102bd9190611b60565b60405180910390f35b3480156102d257600080fd5b506102db611621565b6040516102e89190612268565b60405180910390f35b60008060009054906101000a900473ffffffffffffffffffffffffffffffffffffffff1673ffffffffffffffffffffffffffffffffffffffff163373ffffffffffffffffffffffffffffffffffffffff1614610379576040517f30cd747100000000000000000000000000000000000000000000000000000000815260040160405180910390fd5b47905090565b6000600260003373ffffffffffffffffffffffffffffffffffffffff1673ffffffffffffffffffffffffffffffffffffffff1681526020019081526020016000209050600073ffffffffffffffffffffffffffffffffffffffff168160000160009054906101000a900473ffffffffffffffffffffffffffffffffffffffff1673ffffffffffffffffffffffffffffffffffffffff161415610456576040517f08c379a000000000000000000000000000000000000000000000000000000000815260040161044d906122d6565b60405180910390fd5b600081600101805490509050600080600090505b828110156104fd578473ffffffffffffffffffffffffffffffffffffffff1684600101828154811061049f5761049e6122f6565b5b9060005260206000200160009054906101000a900473ffffffffffffffffffffffffffffffffffffffff1673ffffffffffffffffffffffffffffffffffffffff1614156104ea578091505b80806104f590612354565b91505061046a565b50600081106105b9576000600160008673ffffffffffffffffffffffffffffffffffffffff1673ffffffffffffffffffffffffffffffffffffffff16815260200190815260200160002090503373ffffffffffffffffffffffffffffffffffffffff167f2499a5330ab0979cc612135e7883ebc3cd5c9f7a8508f042540c34723348f632600160405161059091906123e2565b60405180910390a2348160030160008282546105ac91906123fd565b92505081905550506105eb565b6040517f7842cc7d00000000000000000000000000000000000000000000000000000000815260040160405180910390fd5b50505050565b6105f9611a09565b6000600160003373ffffffffffffffffffffffffffffffffffffffff1673ffffffffffffffffffffffffffffffffffffffff1681526020019081526020016000209050600073ffffffffffffffffffffffffffffffffffffffff168160000160009054906101000a900473ffffffffffffffffffffffffffffffffffffffff1673ffffffffffffffffffffffffffffffffffffffff161461081557806040518060c00160405290816000820160009054906101000a900473ffffffffffffffffffffffffffffffffffffffff1673ffffffffffffffffffffffffffffffffffffffff1673ffffffffffffffffffffffffffffffffffffffff1681526020016001820160009054906101000a900473ffffffffffffffffffffffffffffffffffffffff1673ffffffffffffffffffffffffffffffffffffffff1673ffffffffffffffffffffffffffffffffffffffff16815260200160028201548152602001600382015481526020016004820160009054906101000a900460ff1615151515815260200160058201805461078b90612482565b80601f01602080910402602001604051908101604052809291908181526020018280546107b790612482565b80156108045780601f106107d957610100808354040283529160200191610804565b820191906000526020600020905b8154815290600101906020018083116107e757829003601f168201915b505050505081525050915050610847565b6040517f5313d2d300000000000000000000000000000000000000000000000000000000815260040160405180910390fd5b90565b6000600260003373ffffffffffffffffffffffffffffffffffffffff1673ffffffffffffffffffffffffffffffffffffffff1681526020019081526020016000209050600073ffffffffffffffffffffffffffffffffffffffff168160000160009054906101000a900473ffffffffffffffffffffffffffffffffffffffff1673ffffffffffffffffffffffffffffffffffffffff161415610921576040517f08c379a0000000000000000000000000000000000000000000000000000000008152600401610918906122d6565b60405180910390fd5b6000600160008673ffffffffffffffffffffffffffffffffffffffff1673ffffffffffffffffffffffffffffffffffffffff1681526020019081526020016000209050600073ffffffffffffffffffffffffffffffffffffffff168160000160009054906101000a900473ffffffffffffffffffffffffffffffffffffffff1673ffffffffffffffffffffffffffffffffffffffff16146109f7576040517f08c379a00000000000000000000000000000000000000000000000000000000081526004016109ee90612500565b60405180910390fd5b848160000160006101000a81548173ffffffffffffffffffffffffffffffffffffffff021916908373ffffffffffffffffffffffffffffffffffffffff16021790555083816002018190555060008160030181905550338160010160006101000a81548173ffffffffffffffffffffffffffffffffffffffff021916908373ffffffffffffffffffffffffffffffffffffffff16021790555082816005019080519060200190610aa8929190611a6d565b5081600101859080600181540180825580915050600190039060005260206000200160009091909190916101000a81548173ffffffffffffffffffffffffffffffffffffffff021916908373ffffffffffffffffffffffffffffffffffffffff1602179055505050505050565b6060600260003373ffffffffffffffffffffffffffffffffffffffff1673ffffffffffffffffffffffffffffffffffffffff168152602001908152602001600020600101805480602002602001604051908101604052809291908181526020018280548015610bd957602002820191906000526020600020905b8160009054906101000a900473ffffffffffffffffffffffffffffffffffffffff1673ffffffffffffffffffffffffffffffffffffffff1681526020019060010190808311610b8f575b5050505050905090565b610beb611af3565b6000600260003373ffffffffffffffffffffffffffffffffffffffff1673ffffffffffffffffffffffffffffffffffffffff1681526020019081526020016000209050600073ffffffffffffffffffffffffffffffffffffffff168160000160009054906101000a900473ffffffffffffffffffffffffffffffffffffffff1673ffffffffffffffffffffffffffffffffffffffff1614610e1057806040518060600160405290816000820160009054906101000a900473ffffffffffffffffffffffffffffffffffffffff1673ffffffffffffffffffffffffffffffffffffffff1673ffffffffffffffffffffffffffffffffffffffff16815260200160018201805480602002602001604051908101604052809291908181526020018280548015610d6d57602002820191906000526020600020905b8160009054906101000a900473ffffffffffffffffffffffffffffffffffffffff1673ffffffffffffffffffffffffffffffffffffffff1681526020019060010190808311610d23575b50505050508152602001600282018054610d8690612482565b80601f0160208091040260200160405190810160405280929190818152602001828054610db290612482565b8015610dff5780601f10610dd457610100808354040283529160200191610dff565b820191906000526020600020905b815481529060010190602001808311610de257829003601f168201915b505050505081525050915050610e42565b6040517f5313d2d300000000000000000000000000000000000000000000000000000000815260040160405180910390fd5b90565b60008060009054906101000a900473ffffffffffffffffffffffffffffffffffffffff16905090565b6000610e7942611815565b6000600160008473ffffffffffffffffffffffffffffffffffffffff1673ffffffffffffffffffffffffffffffffffffffff1681526020019081526020016000209050600081600201549050610ece81611815565b80421115610ee157600192505050610ee8565b6000925050505b919050565b6000600260003373ffffffffffffffffffffffffffffffffffffffff1673ffffffffffffffffffffffffffffffffffffffff1681526020019081526020016000209050600073ffffffffffffffffffffffffffffffffffffffff168160000160009054906101000a900473ffffffffffffffffffffffffffffffffffffffff1673ffffffffffffffffffffffffffffffffffffffff161415610fc4576040517f08c379a0000000000000000000000000000000000000000000000000000000008152600401610fbb906122d6565b60405180910390fd5b6110026040518060400160405280601f81526020017f2d2d2d2d2d2d2d2d2d2d2d2d2d2d2d2d2d2d2d2d2d2d2d2d2d2d2d2d2d2d2d008152506118ae565b61100b33611947565b611076600160008573ffffffffffffffffffffffffffffffffffffffff1673ffffffffffffffffffffffffffffffffffffffff16815260200190815260200160002060010160009054906101000a900473ffffffffffffffffffffffffffffffffffffffff16611947565b6000600160008573ffffffffffffffffffffffffffffffffffffffff1673ffffffffffffffffffffffffffffffffffffffff16815260200190815260200160002090503373ffffffffffffffffffffffffffffffffffffffff16600160008673ffffffffffffffffffffffffffffffffffffffff1673ffffffffffffffffffffffffffffffffffffffff16815260200190815260200160002060010160009054906101000a900473ffffffffffffffffffffffffffffffffffffffff1673ffffffffffffffffffffffffffffffffffffffff1614611189576040517f08c379a00000000000000000000000000000000000000000000000000000000081526004016111809061256c565b60405180910390fd5b3373ffffffffffffffffffffffffffffffffffffffff167f2499a5330ab0979cc612135e7883ebc3cd5c9f7a8508f042540c34723348f63260016040516111d091906123e2565b60405180910390a28281600301541015611216576040517f3d5f971800000000000000000000000000000000000000000000000000000000815260040160405180910390fd5b8281600301600082825461122a919061258c565b925050819055503373ffffffffffffffffffffffffffffffffffffffff166108fc849081150290604051600060405180830381858888f19350505050158015611277573d6000803e3d6000fd5b5050505050565b600061128933610e6e565b90506000151581151514156112ca576040517ff7c60f5700000000000000000000000000000000000000000000000000000000815260040160405180910390fd5b6000600160008573ffffffffffffffffffffffffffffffffffffffff1673ffffffffffffffffffffffffffffffffffffffff1681526020019081526020016000209050600073ffffffffffffffffffffffffffffffffffffffff168160000160009054906101000a900473ffffffffffffffffffffffffffffffffffffffff1673ffffffffffffffffffffffffffffffffffffffff1614156113a1576040517f08c379a000000000000000000000000000000000000000000000000000000000815260040161139890612632565b60405180910390fd5b82816003015410611462573373ffffffffffffffffffffffffffffffffffffffff167f2499a5330ab0979cc612135e7883ebc3cd5c9f7a8508f042540c34723348f63260016040516113f391906123e2565b60405180910390a28281600301600082825461140f919061258c565b925050819055503373ffffffffffffffffffffffffffffffffffffffff166108fc849081150290604051600060405180830381858888f1935050505015801561145c573d6000803e3d6000fd5b50611494565b6040517fbc6f361300000000000000000000000000000000000000000000000000000000815260040160405180910390fd5b50505050565b6000600260003373ffffffffffffffffffffffffffffffffffffffff1673ffffffffffffffffffffffffffffffffffffffff1681526020019081526020016000209050600073ffffffffffffffffffffffffffffffffffffffff168160000160009054906101000a900473ffffffffffffffffffffffffffffffffffffffff1673ffffffffffffffffffffffffffffffffffffffff1614611570576040517f08c379a00000000000000000000000000000000000000000000000000000000081526004016115679061269e565b60405180910390fd5b81816002019080519060200190611588929190611a6d565b50338160000160006101000a81548173ffffffffffffffffffffffffffffffffffffffff021916908373ffffffffffffffffffffffffffffffffffffffff1602179055505050565b600080600160008473ffffffffffffffffffffffffffffffffffffffff1673ffffffffffffffffffffffffffffffffffffffff16815260200190815260200160002090508060030154915050919050565b60606000600260003373ffffffffffffffffffffffffffffffffffffffff1673ffffffffffffffffffffffffffffffffffffffff16815260200190815260200160002090506000600160003373ffffffffffffffffffffffffffffffffffffffff1673ffffffffffffffffffffffffffffffffffffffff1681526020019081526020016000209050600073ffffffffffffffffffffffffffffffffffffffff168260000160009054906101000a900473ffffffffffffffffffffffffffffffffffffffff1673ffffffffffffffffffffffffffffffffffffffff1614611740576040518060400160405280600681526020017f506172656e74000000000000000000000000000000000000000000000000000081525092505050611812565b600073ffffffffffffffffffffffffffffffffffffffff168160000160009054906101000a900473ffffffffffffffffffffffffffffffffffffffff1673ffffffffffffffffffffffffffffffffffffffff16146117d7576040518060400160405280600581526020017f4368696c6400000000000000000000000000000000000000000000000000000081525092505050611812565b6040518060400160405280600c81526020017f556e726567697374657265640000000000000000000000000000000000000000815250925050505b90565b6118ab816040516024016118299190611b60565b6040516020818303038152906040527ff5b1bba9000000000000000000000000000000000000000000000000000000007bffffffffffffffffffffffffffffffffffffffffffffffffffffffff19166020820180517bffffffffffffffffffffffffffffffffffffffffffffffffffffffff83818316178352505050506119e0565b50565b611944816040516024016118c29190612268565b6040516020818303038152906040527f41304fac000000000000000000000000000000000000000000000000000000007bffffffffffffffffffffffffffffffffffffffffffffffffffffffff19166020820180517bffffffffffffffffffffffffffffffffffffffffffffffffffffffff83818316178352505050506119e0565b50565b6119dd8160405160240161195b9190612150565b6040516020818303038152906040527f2c2ecbc2000000000000000000000000000000000000000000000000000000007bffffffffffffffffffffffffffffffffffffffffffffffffffffffff19166020820180517bffffffffffffffffffffffffffffffffffffffffffffffffffffffff83818316178352505050506119e0565b50565b60008151905060006a636f6e736f6c652e6c6f679050602083016000808483855afa5050505050565b6040518060c00160405280600073ffffffffffffffffffffffffffffffffffffffff168152602001600073ffffffffffffffffffffffffffffffffffffffff1681526020016000815260200160008152602001600015158152602001606081525090565b828054611a7990612482565b90600052602060002090601f016020900481019282611a9b5760008555611ae2565b82601f10611ab457805160ff1916838001178555611ae2565b82800160010185558215611ae2579182015b82811115611ae1578251825591602001919060010190611ac6565b5b509050611aef9190611b2a565b5090565b6040518060600160405280600073ffffffffffffffffffffffffffffffffffffffff16815260200160608152602001606081525090565b5b80821115611b43576000816000905550600101611b2b565b5090565b6000819050919050565b611b5a81611b47565b82525050565b6000602082019050611b756000830184611b51565b92915050565b6000604051905090565b600080fd5b600080fd5b600073ffffffffffffffffffffffffffffffffffffffff82169050919050565b6000611bba82611b8f565b9050919050565b611bca81611baf565b8114611bd557600080fd5b50565b600081359050611be781611bc1565b92915050565b600060208284031215611c0357611c02611b85565b5b6000611c1184828501611bd8565b91505092915050565b611c2381611baf565b82525050565b611c3281611b47565b82525050565b60008115159050919050565b611c4d81611c38565b82525050565b600081519050919050565b600082825260208201905092915050565b60005b83811015611c8d578082015181840152602081019050611c72565b83811115611c9c576000848401525b50505050565b6000601f19601f8301169050919050565b6000611cbe82611c53565b611cc88185611c5e565b9350611cd8818560208601611c6f565b611ce181611ca2565b840191505092915050565b600060c083016000830151611d046000860182611c1a565b506020830151611d176020860182611c1a565b506040830151611d2a6040860182611c29565b506060830151611d3d6060860182611c29565b506080830151611d506080860182611c44565b5060a083015184820360a0860152611d688282611cb3565b9150508091505092915050565b60006020820190508181036000830152611d8f8184611cec565b905092915050565b611da081611b47565b8114611dab57600080fd5b50565b600081359050611dbd81611d97565b92915050565b600080fd5b600080fd5b7f4e487b7100000000000000000000000000000000000000000000000000000000600052604160045260246000fd5b611e0582611ca2565b810181811067ffffffffffffffff82111715611e2457611e23611dcd565b5b80604052505050565b6000611e37611b7b565b9050611e438282611dfc565b919050565b600067ffffffffffffffff821115611e6357611e62611dcd565b5b611e6c82611ca2565b9050602081019050919050565b82818337600083830152505050565b6000611e9b611e9684611e48565b611e2d565b905082815260208101848484011115611eb757611eb6611dc8565b5b611ec2848285611e79565b509392505050565b600082601f830112611edf57611ede611dc3565b5b8135611eef848260208601611e88565b91505092915050565b600080600060608486031215611f1157611f10611b85565b5b6000611f1f86828701611bd8565b9350506020611f3086828701611dae565b925050604084013567ffffffffffffffff811115611f5157611f50611b8a565b5b611f5d86828701611eca565b9150509250925092565b600081519050919050565b600082825260208201905092915050565b6000819050602082019050919050565b6000611f9e82611b8f565b9050919050565b611fae81611f93565b82525050565b6000611fc08383611fa5565b60208301905092915050565b6000602082019050919050565b6000611fe482611f67565b611fee8185611f72565b9350611ff983611f83565b8060005b8381101561202a5781516120118882611fb4565b975061201c83611fcc565b925050600181019050611ffd565b5085935050505092915050565b600060208201905081810360008301526120518184611fd9565b905092915050565b600082825260208201905092915050565b600061207582611f67565b61207f8185612059565b935061208a83611f83565b8060005b838110156120bb5781516120a28882611fb4565b97506120ad83611fcc565b92505060018101905061208e565b5085935050505092915050565b60006060830160008301516120e06000860182611c1a565b50602083015184820360208601526120f8828261206a565b915050604083015184820360408601526121128282611cb3565b9150508091505092915050565b6000602082019050818103600083015261213981846120c8565b905092915050565b61214a81611f93565b82525050565b60006020820190506121656000830184612141565b92915050565b61217481611c38565b82525050565b600060208201905061218f600083018461216b565b92915050565b600080604083850312156121ac576121ab611b85565b5b60006121ba85828601611bd8565b92505060206121cb85828601611dae565b9150509250929050565b6000602082840312156121eb576121ea611b85565b5b600082013567ffffffffffffffff81111561220957612208611b8a565b5b61221584828501611eca565b91505092915050565b600082825260208201905092915050565b600061223a82611c53565b612244818561221e565b9350612254818560208601611c6f565b61225d81611ca2565b840191505092915050565b60006020820190508181036000830152612282818461222f565b905092915050565b7f54686572655f49735f4e6f5f537563685f506172656e74000000000000000000600082015250565b60006122c060178361221e565b91506122cb8261228a565b602082019050919050565b600060208201905081810360008301526122ef816122b3565b9050919050565b7f4e487b7100000000000000000000000000000000000000000000000000000000600052603260045260246000fd5b7f4e487b7100000000000000000000000000000000000000000000000000000000600052601160045260246000fd5b600061235f82611b47565b91507fffffffffffffffffffffffffffffffffffffffffffffffffffffffffffffffff82141561239257612391612325565b5b600182019050919050565b6000819050919050565b6000819050919050565b60006123cc6123c76123c28461239d565b6123a7565b611b47565b9050919050565b6123dc816123b1565b82525050565b60006020820190506123f760008301846123d3565b92915050565b600061240882611b47565b915061241383611b47565b9250827fffffffffffffffffffffffffffffffffffffffffffffffffffffffffffffffff0382111561244857612447612325565b5b828201905092915050565b7f4e487b7100000000000000000000000000000000000000000000000000000000600052602260045260246000fd5b6000600282049050600182168061249a57607f821691505b602082108114156124ae576124ad612453565b5b50919050565b7f546869735f4368696c645f416c72656164795f45786973740000000000000000600082015250565b60006124ea60188361221e565b91506124f5826124b4565b602082019050919050565b60006020820190508181036000830152612519816124dd565b9050919050565b7f546869735f6368696c645f69735f6e6f745f62656c6f6e67735f706172656e74600082015250565b600061255660208361221e565b915061256182612520565b602082019050919050565b6000602082019050818103600083015261258581612549565b9050919050565b600061259782611b47565b91506125a283611b47565b9250828210156125b5576125b4612325565b5b828203905092915050565b7f5468657265206973206e6f206368696c6420776974682074686973206164647260008201527f6573730000000000000000000000000000000000000000000000000000000000602082015250565b600061261c60238361221e565b9150612627826125c0565b604082019050919050565b6000602082019050818103600083015261264b8161260f565b9050919050565b7f546869735f506172656e745f416c72656164795f457869737400000000000000600082015250565b600061268860198361221e565b915061269382612652565b602082019050919050565b600060208201905081810360008301526126b78161267b565b905091905056fea264697066735822122043366c9b13659608b1abc8e8df5ef26e88adcfb2a16a6605d323ef74774692e964736f6c63430008090033",
  "devdoc": {
    "kind": "dev",
    "methods": {},
    "version": 1
  },
  "userdoc": {
    "kind": "user",
    "methods": {},
    "version": 1
  },
  "storageLayout": {
    "storage": [
      {
        "astId": 18,
        "contract": "contracts/interFi.sol:InterFi",
        "label": "owner",
        "offset": 0,
        "slot": "0",
        "type": "t_address"
      },
      {
        "astId": 44,
        "contract": "contracts/interFi.sol:InterFi",
        "label": "addressToChild",
        "offset": 0,
        "slot": "1",
        "type": "t_mapping(t_address,t_struct(Child)39_storage)"
      },
      {
        "astId": 49,
        "contract": "contracts/interFi.sol:InterFi",
        "label": "addressToParent",
        "offset": 0,
        "slot": "2",
        "type": "t_mapping(t_address,t_struct(Parent)26_storage)"
      }
    ],
    "types": {
      "t_address": {
        "encoding": "inplace",
        "label": "address",
        "numberOfBytes": "20"
      },
      "t_address_payable": {
        "encoding": "inplace",
        "label": "address payable",
        "numberOfBytes": "20"
      },
      "t_array(t_address)dyn_storage": {
        "base": "t_address",
        "encoding": "dynamic_array",
        "label": "address[]",
        "numberOfBytes": "32"
      },
      "t_bool": {
        "encoding": "inplace",
        "label": "bool",
        "numberOfBytes": "1"
      },
      "t_mapping(t_address,t_struct(Child)39_storage)": {
        "encoding": "mapping",
        "key": "t_address",
        "label": "mapping(address => struct InterFi.Child)",
        "numberOfBytes": "32",
        "value": "t_struct(Child)39_storage"
      },
      "t_mapping(t_address,t_struct(Parent)26_storage)": {
        "encoding": "mapping",
        "key": "t_address",
        "label": "mapping(address => struct InterFi.Parent)",
        "numberOfBytes": "32",
        "value": "t_struct(Parent)26_storage"
      },
      "t_string_storage": {
        "encoding": "bytes",
        "label": "string",
        "numberOfBytes": "32"
      },
      "t_struct(Child)39_storage": {
        "encoding": "inplace",
        "label": "struct InterFi.Child",
        "members": [
          {
            "astId": 28,
            "contract": "contracts/interFi.sol:InterFi",
            "label": "Address",
            "offset": 0,
            "slot": "0",
            "type": "t_address_payable"
          },
          {
            "astId": 30,
            "contract": "contracts/interFi.sol:InterFi",
            "label": "invester",
            "offset": 0,
            "slot": "1",
            "type": "t_address_payable"
          },
          {
            "astId": 32,
            "contract": "contracts/interFi.sol:InterFi",
            "label": "releaseTime",
            "offset": 0,
            "slot": "2",
            "type": "t_uint256"
          },
          {
            "astId": 34,
            "contract": "contracts/interFi.sol:InterFi",
            "label": "amount",
            "offset": 0,
            "slot": "3",
            "type": "t_uint256"
          },
          {
            "astId": 36,
            "contract": "contracts/interFi.sol:InterFi",
            "label": "isReleasable",
            "offset": 0,
            "slot": "4",
            "type": "t_bool"
          },
          {
            "astId": 38,
            "contract": "contracts/interFi.sol:InterFi",
            "label": "name",
            "offset": 0,
            "slot": "5",
            "type": "t_string_storage"
          }
        ],
        "numberOfBytes": "192"
      },
      "t_struct(Parent)26_storage": {
        "encoding": "inplace",
        "label": "struct InterFi.Parent",
        "members": [
          {
            "astId": 20,
            "contract": "contracts/interFi.sol:InterFi",
            "label": "Address",
            "offset": 0,
            "slot": "0",
            "type": "t_address_payable"
          },
          {
            "astId": 23,
            "contract": "contracts/interFi.sol:InterFi",
            "label": "children",
            "offset": 0,
            "slot": "1",
            "type": "t_array(t_address)dyn_storage"
          },
          {
            "astId": 25,
            "contract": "contracts/interFi.sol:InterFi",
            "label": "name",
            "offset": 0,
            "slot": "2",
            "type": "t_string_storage"
          }
        ],
        "numberOfBytes": "96"
      },
      "t_uint256": {
        "encoding": "inplace",
        "label": "uint256",
        "numberOfBytes": "32"
      }
    }
  }
}