{
  "address": "0xD2e4BF24e77A02Ad60C873D7CD42f921CC212750",
  "abi": [
    {
      "inputs": [],
      "name": "NotOwner",
      "type": "error"
    },
    {
      "inputs": [],
      "name": "Not_Enough_Funds",
      "type": "error"
    },
    {
      "inputs": [],
      "name": "Not_released_yet",
      "type": "error"
    },
    {
      "inputs": [],
      "name": "There_is_no_child_belongs_parent",
      "type": "error"
    },
    {
      "inputs": [],
      "name": "There_is_no_enough_child_balance_to_draw",
      "type": "error"
    },
    {
      "inputs": [],
      "name": "There_is_no_user",
      "type": "error"
    },
    {
      "anonymous": false,
      "inputs": [
        {
          "indexed": false,
          "internalType": "uint8",
          "name": "version",
          "type": "uint8"
        }
      ],
      "name": "Initialized",
      "type": "event"
    },
    {
      "anonymous": false,
      "inputs": [
        {
          "indexed": true,
          "internalType": "address",
          "name": "_invester",
          "type": "address"
        },
        {
          "indexed": false,
          "internalType": "uint256",
          "name": "_amount",
          "type": "uint256"
        }
      ],
      "name": "Purchase",
      "type": "event"
    },
    {
      "stateMutability": "payable",
      "type": "fallback"
    },
    {
      "inputs": [
        {
          "internalType": "address payable",
          "name": "_child",
          "type": "address"
        },
        {
          "internalType": "uint256",
          "name": "_releaseTime",
          "type": "uint256"
        },
        {
          "internalType": "string",
          "name": "_name",
          "type": "string"
        }
      ],
      "name": "addChild",
      "outputs": [],
      "stateMutability": "nonpayable",
      "type": "function"
    },
    {
      "inputs": [
        {
          "internalType": "string",
          "name": "_name",
          "type": "string"
        }
      ],
      "name": "addParent",
      "outputs": [],
      "stateMutability": "nonpayable",
      "type": "function"
    },
    {
      "inputs": [
        {
          "internalType": "address payable",
          "name": "_child",
          "type": "address"
        }
      ],
      "name": "ageCalc",
      "outputs": [
        {
          "internalType": "bool",
          "name": "",
          "type": "bool"
        }
      ],
      "stateMutability": "view",
      "type": "function"
    },
    {
      "inputs": [
        {
          "internalType": "address payable",
          "name": "_child",
          "type": "address"
        }
      ],
      "name": "fund",
      "outputs": [],
      "stateMutability": "payable",
      "type": "function"
    },
    {
      "inputs": [
        {
          "internalType": "address payable",
          "name": "_child",
          "type": "address"
        }
      ],
      "name": "getAmount",
      "outputs": [
        {
          "internalType": "uint256",
          "name": "",
          "type": "uint256"
        }
      ],
      "stateMutability": "view",
      "type": "function"
    },
    {
      "inputs": [],
      "name": "getBalance",
      "outputs": [
        {
          "internalType": "uint256",
          "name": "",
          "type": "uint256"
        }
      ],
      "stateMutability": "view",
      "type": "function"
    },
    {
      "inputs": [],
      "name": "getChild",
      "outputs": [
        {
          "components": [
            {
              "internalType": "address payable",
              "name": "Address",
              "type": "address"
            },
            {
              "internalType": "address payable",
              "name": "invester",
              "type": "address"
            },
            {
              "internalType": "uint256",
              "name": "releaseTime",
              "type": "uint256"
            },
            {
              "internalType": "uint256",
              "name": "amount",
              "type": "uint256"
            },
            {
              "internalType": "bool",
              "name": "isReleasable",
              "type": "bool"
            },
            {
              "internalType": "string",
              "name": "name",
              "type": "string"
            }
          ],
          "internalType": "struct InterFi.Child",
          "name": "",
          "type": "tuple"
        }
      ],
      "stateMutability": "view",
      "type": "function"
    },
    {
      "inputs": [],
      "name": "getChildren",
      "outputs": [
        {
          "internalType": "address[]",
          "name": "",
          "type": "address[]"
        }
      ],
      "stateMutability": "view",
      "type": "function"
    },
    {
      "inputs": [],
      "name": "getChildrenList",
      "outputs": [
        {
          "components": [
            {
              "internalType": "address payable",
              "name": "Address",
              "type": "address"
            },
            {
              "internalType": "address payable",
              "name": "invester",
              "type": "address"
            },
            {
              "internalType": "uint256",
              "name": "releaseTime",
              "type": "uint256"
            },
            {
              "internalType": "uint256",
              "name": "amount",
              "type": "uint256"
            },
            {
              "internalType": "bool",
              "name": "isReleasable",
              "type": "bool"
            },
            {
              "internalType": "string",
              "name": "name",
              "type": "string"
            }
          ],
          "internalType": "struct InterFi.Child[]",
          "name": "result",
          "type": "tuple[]"
        }
      ],
      "stateMutability": "view",
      "type": "function"
    },
    {
      "inputs": [],
      "name": "getParent",
      "outputs": [
        {
          "components": [
            {
              "internalType": "address payable",
              "name": "Address",
              "type": "address"
            },
            {
              "internalType": "address[]",
              "name": "children",
              "type": "address[]"
            },
            {
              "internalType": "string",
              "name": "name",
              "type": "string"
            }
          ],
          "internalType": "struct InterFi.Parent",
          "name": "",
          "type": "tuple"
        }
      ],
      "stateMutability": "view",
      "type": "function"
    },
    {
      "inputs": [
        {
          "internalType": "address payable",
          "name": "_child",
          "type": "address"
        }
      ],
      "name": "getReleaseTime",
      "outputs": [
        {
          "internalType": "uint256",
          "name": "",
          "type": "uint256"
        }
      ],
      "stateMutability": "view",
      "type": "function"
    },
    {
      "inputs": [],
      "name": "getRole",
      "outputs": [
        {
          "internalType": "string",
          "name": "",
          "type": "string"
        }
      ],
      "stateMutability": "view",
      "type": "function"
    },
    {
      "inputs": [],
      "name": "initialize",
      "outputs": [],
      "stateMutability": "nonpayable",
      "type": "function"
    },
    {
      "inputs": [],
      "name": "sumChildren",
      "outputs": [
        {
          "internalType": "uint256",
          "name": "",
          "type": "uint256"
        }
      ],
      "stateMutability": "view",
      "type": "function"
    },
    {
      "inputs": [
        {
          "internalType": "uint256",
          "name": "_amount",
          "type": "uint256"
        }
      ],
      "name": "withdrawChild",
      "outputs": [],
      "stateMutability": "payable",
      "type": "function"
    },
    {
      "inputs": [
        {
          "internalType": "address payable",
          "name": "_child",
          "type": "address"
        },
        {
          "internalType": "uint256",
          "name": "_amount",
          "type": "uint256"
        }
      ],
      "name": "withdrawParent",
      "outputs": [],
      "stateMutability": "payable",
      "type": "function"
    },
    {
      "stateMutability": "payable",
      "type": "receive"
    }
  ],
  "transactionHash": "0xa53d97f3c3085537238bfa97e1ec4ea6e281d8e0b53d8ca2d9e2c55f91edb00f",
  "args": [],
  "numDeployments": 5,
  "solcInputHash": "2833cd546271c1beaaadfe04f36c3d76",
  "bytecode": "0x608060405234801561001057600080fd5b50613148806100206000396000f3fe6080604052600436106100f75760003560e01c8063761751931161008a578063a842b36011610059578063a842b360146102f4578063c4e2e05414610310578063f5a7976714610339578063fde0817414610376576100fe565b8063761751931461025957806380f76021146102755780638129fc1c146102a0578063936c852d146102b7576100fe565b80633190a2b3116100c65780633190a2b3146101af57806345cd9969146101da5780634892e8e8146102035780635f17c07e1461022e576100fe565b80630cb7eb4c1461010057806312065fe01461013d57806323024408146101685780632a43f33814610184576100fe565b366100fe57005b005b34801561010c57600080fd5b50610127600480360381019061012291906123e9565b6103a1565b6040516101349190612b86565b60405180910390f35b34801561014957600080fd5b506101526103f2565b60405161015f9190612b86565b60405180910390f35b610182600480360381019061017d91906123e9565b610480565b005b34801561019057600080fd5b50610199610718565b6040516101a69190612b42565b60405180910390f35b3480156101bb57600080fd5b506101c4610971565b6040516101d19190612b86565b60405180910390f35b3480156101e657600080fd5b5061020160048036038101906101fc919061244e565b610b34565b005b34801561020f57600080fd5b50610218610dff565b60405161022591906129cb565b60405180910390f35b34801561023a57600080fd5b50610243610ecd565b60405161025091906129ed565b60405180910390f35b610273600480360381019061026e91906124f6565b6112b2565b005b34801561028157600080fd5b5061028a6114cd565b6040516102979190612b64565b60405180910390f35b3480156102ac57600080fd5b506102b561172f565b005b3480156102c357600080fd5b506102de60048036038101906102d991906123e9565b6118a6565b6040516102eb9190612a0f565b60405180910390f35b61030e60048036038101906103099190612412565b61193f565b005b34801561031c57600080fd5b50610337600480360381019061033291906124b5565b611c87565b005b34801561034557600080fd5b50610360600480360381019061035b91906123e9565b611dbd565b60405161036d9190612b86565b60405180910390f35b34801561038257600080fd5b5061038b611e0e565b6040516103989190612a60565b60405180910390f35b600080600160008473ffffffffffffffffffffffffffffffffffffffff1673ffffffffffffffffffffffffffffffffffffffff16815260200190815260200160002090508060020154915050919050565b60008060029054906101000a900473ffffffffffffffffffffffffffffffffffffffff1673ffffffffffffffffffffffffffffffffffffffff163373ffffffffffffffffffffffffffffffffffffffff161461047a576040517f30cd747100000000000000000000000000000000000000000000000000000000815260040160405180910390fd5b47905090565b6000600260003373ffffffffffffffffffffffffffffffffffffffff1673ffffffffffffffffffffffffffffffffffffffff1681526020019081526020016000209050600073ffffffffffffffffffffffffffffffffffffffff168160000160009054906101000a900473ffffffffffffffffffffffffffffffffffffffff1673ffffffffffffffffffffffffffffffffffffffff161415610557576040517f08c379a000000000000000000000000000000000000000000000000000000000815260040161054e90612a82565b60405180910390fd5b600081600101805490509050600080600090505b82811015610624578473ffffffffffffffffffffffffffffffffffffffff168460010182815481106105c6577f4e487b7100000000000000000000000000000000000000000000000000000000600052603260045260246000fd5b9060005260206000200160009054906101000a900473ffffffffffffffffffffffffffffffffffffffff1673ffffffffffffffffffffffffffffffffffffffff161415610611578091505b808061061c90612ebb565b91505061056b565b50600081106106e0576000600160008673ffffffffffffffffffffffffffffffffffffffff1673ffffffffffffffffffffffffffffffffffffffff16815260200190815260200160002090503373ffffffffffffffffffffffffffffffffffffffff167f2499a5330ab0979cc612135e7883ebc3cd5c9f7a8508f042540c34723348f63260016040516106b79190612a2a565b60405180910390a2348160030160008282546106d39190612ca7565b9250508190555050610712565b6040517f7842cc7d00000000000000000000000000000000000000000000000000000000815260040160405180910390fd5b50505050565b610720612219565b6000600160003373ffffffffffffffffffffffffffffffffffffffff1673ffffffffffffffffffffffffffffffffffffffff1681526020019081526020016000209050600073ffffffffffffffffffffffffffffffffffffffff168160000160009054906101000a900473ffffffffffffffffffffffffffffffffffffffff1673ffffffffffffffffffffffffffffffffffffffff161461093c57806040518060c00160405290816000820160009054906101000a900473ffffffffffffffffffffffffffffffffffffffff1673ffffffffffffffffffffffffffffffffffffffff1673ffffffffffffffffffffffffffffffffffffffff1681526020016001820160009054906101000a900473ffffffffffffffffffffffffffffffffffffffff1673ffffffffffffffffffffffffffffffffffffffff1673ffffffffffffffffffffffffffffffffffffffff16815260200160028201548152602001600382015481526020016004820160009054906101000a900460ff161515151581526020016005820180546108b290612e58565b80601f01602080910402602001604051908101604052809291908181526020018280546108de90612e58565b801561092b5780601f106109005761010080835404028352916020019161092b565b820191906000526020600020905b81548152906001019060200180831161090e57829003601f168201915b50505050508152505091505061096e565b6040517f5313d2d300000000000000000000000000000000000000000000000000000000815260040160405180910390fd5b90565b600080600260003373ffffffffffffffffffffffffffffffffffffffff1673ffffffffffffffffffffffffffffffffffffffff1681526020019081526020016000209050600073ffffffffffffffffffffffffffffffffffffffff168160000160009054906101000a900473ffffffffffffffffffffffffffffffffffffffff1673ffffffffffffffffffffffffffffffffffffffff161415610a49576040517f08c379a0000000000000000000000000000000000000000000000000000000008152600401610a4090612a82565b60405180910390fd5b6000808260010180549050905060005b81811015610b2a5760016000856001018381548110610aa1577f4e487b7100000000000000000000000000000000000000000000000000000000600052603260045260246000fd5b9060005260206000200160009054906101000a900473ffffffffffffffffffffffffffffffffffffffff1673ffffffffffffffffffffffffffffffffffffffff1673ffffffffffffffffffffffffffffffffffffffff1681526020019081526020016000206003015483610b159190612ca7565b92508080610b2290612ebb565b915050610a59565b5081935050505090565b6000600260003373ffffffffffffffffffffffffffffffffffffffff1673ffffffffffffffffffffffffffffffffffffffff1681526020019081526020016000209050600073ffffffffffffffffffffffffffffffffffffffff168160000160009054906101000a900473ffffffffffffffffffffffffffffffffffffffff1673ffffffffffffffffffffffffffffffffffffffff161415610c0b576040517f08c379a0000000000000000000000000000000000000000000000000000000008152600401610c0290612a82565b60405180910390fd5b6000600160008673ffffffffffffffffffffffffffffffffffffffff1673ffffffffffffffffffffffffffffffffffffffff1681526020019081526020016000209050600073ffffffffffffffffffffffffffffffffffffffff168160000160009054906101000a900473ffffffffffffffffffffffffffffffffffffffff1673ffffffffffffffffffffffffffffffffffffffff1614610ce1576040517f08c379a0000000000000000000000000000000000000000000000000000000008152600401610cd890612ac2565b60405180910390fd5b848160000160006101000a81548173ffffffffffffffffffffffffffffffffffffffff021916908373ffffffffffffffffffffffffffffffffffffffff16021790555083816002018190555060008160030181905550338160010160006101000a81548173ffffffffffffffffffffffffffffffffffffffff021916908373ffffffffffffffffffffffffffffffffffffffff16021790555082816005019080519060200190610d9292919061227d565b5081600101859080600181540180825580915050600190039060005260206000200160009091909190916101000a81548173ffffffffffffffffffffffffffffffffffffffff021916908373ffffffffffffffffffffffffffffffffffffffff1602179055505050505050565b6060600260003373ffffffffffffffffffffffffffffffffffffffff1673ffffffffffffffffffffffffffffffffffffffff168152602001908152602001600020600101805480602002602001604051908101604052809291908181526020018280548015610ec357602002820191906000526020600020905b8160009054906101000a900473ffffffffffffffffffffffffffffffffffffffff1673ffffffffffffffffffffffffffffffffffffffff1681526020019060010190808311610e79575b5050505050905090565b60606000600260003373ffffffffffffffffffffffffffffffffffffffff1673ffffffffffffffffffffffffffffffffffffffff16815260200190815260200160002090503373ffffffffffffffffffffffffffffffffffffffff168160000160009054906101000a900473ffffffffffffffffffffffffffffffffffffffff1673ffffffffffffffffffffffffffffffffffffffff1614610fa4576040517f08c379a0000000000000000000000000000000000000000000000000000000008152600401610f9b90612a82565b60405180910390fd5b806001018054905067ffffffffffffffff811115610feb577f4e487b7100000000000000000000000000000000000000000000000000000000600052604160045260246000fd5b60405190808252806020026020018201604052801561102457816020015b611011612219565b8152602001906001900390816110095790505b50915060005b81600101805490508110156112ad5760016000836001018381548110611079577f4e487b7100000000000000000000000000000000000000000000000000000000600052603260045260246000fd5b9060005260206000200160009054906101000a900473ffffffffffffffffffffffffffffffffffffffff1673ffffffffffffffffffffffffffffffffffffffff1673ffffffffffffffffffffffffffffffffffffffff1681526020019081526020016000206040518060c00160405290816000820160009054906101000a900473ffffffffffffffffffffffffffffffffffffffff1673ffffffffffffffffffffffffffffffffffffffff1673ffffffffffffffffffffffffffffffffffffffff1681526020016001820160009054906101000a900473ffffffffffffffffffffffffffffffffffffffff1673ffffffffffffffffffffffffffffffffffffffff1673ffffffffffffffffffffffffffffffffffffffff16815260200160028201548152602001600382015481526020016004820160009054906101000a900460ff161515151581526020016005820180546111d490612e58565b80601f016020809104026020016040519081016040528092919081815260200182805461120090612e58565b801561124d5780601f106112225761010080835404028352916020019161124d565b820191906000526020600020905b81548152906001019060200180831161123057829003601f168201915b50505050508152505083828151811061128f577f4e487b7100000000000000000000000000000000000000000000000000000000600052603260045260246000fd5b602002602001018190525080806112a590612ebb565b91505061102a565b505090565b60006112bd336118a6565b90506000151581151514156112fe576040517ff7c60f5700000000000000000000000000000000000000000000000000000000815260040160405180910390fd5b6000600160003373ffffffffffffffffffffffffffffffffffffffff1673ffffffffffffffffffffffffffffffffffffffff1681526020019081526020016000209050600073ffffffffffffffffffffffffffffffffffffffff168160000160009054906101000a900473ffffffffffffffffffffffffffffffffffffffff1673ffffffffffffffffffffffffffffffffffffffff1614156113d5576040517f08c379a00000000000000000000000000000000000000000000000000000000081526004016113cc90612b02565b60405180910390fd5b82816003015410611496573373ffffffffffffffffffffffffffffffffffffffff167f2499a5330ab0979cc612135e7883ebc3cd5c9f7a8508f042540c34723348f63260016040516114279190612a2a565b60405180910390a2828160030160008282546114439190612d57565b925050819055503373ffffffffffffffffffffffffffffffffffffffff166108fc849081150290604051600060405180830381858888f19350505050158015611490573d6000803e3d6000fd5b506114c8565b6040517fbc6f361300000000000000000000000000000000000000000000000000000000815260040160405180910390fd5b505050565b6114d5612303565b6000600260003373ffffffffffffffffffffffffffffffffffffffff1673ffffffffffffffffffffffffffffffffffffffff1681526020019081526020016000209050600073ffffffffffffffffffffffffffffffffffffffff168160000160009054906101000a900473ffffffffffffffffffffffffffffffffffffffff1673ffffffffffffffffffffffffffffffffffffffff16146116fa57806040518060600160405290816000820160009054906101000a900473ffffffffffffffffffffffffffffffffffffffff1673ffffffffffffffffffffffffffffffffffffffff1673ffffffffffffffffffffffffffffffffffffffff1681526020016001820180548060200260200160405190810160405280929190818152602001828054801561165757602002820191906000526020600020905b8160009054906101000a900473ffffffffffffffffffffffffffffffffffffffff1673ffffffffffffffffffffffffffffffffffffffff168152602001906001019080831161160d575b5050505050815260200160028201805461167090612e58565b80601f016020809104026020016040519081016040528092919081815260200182805461169c90612e58565b80156116e95780601f106116be576101008083540402835291602001916116e9565b820191906000526020600020905b8154815290600101906020018083116116cc57829003601f168201915b50505050508152505091505061172c565b6040517f5313d2d300000000000000000000000000000000000000000000000000000000815260040160405180910390fd5b90565b60008060019054906101000a900460ff161590508080156117605750600160008054906101000a900460ff1660ff16105b8061178d575061176f30612002565b15801561178c5750600160008054906101000a900460ff1660ff16145b5b6117cc576040517f08c379a00000000000000000000000000000000000000000000000000000000081526004016117c390612aa2565b60405180910390fd5b60016000806101000a81548160ff021916908360ff1602179055508015611809576001600060016101000a81548160ff0219169083151502179055505b33600060026101000a81548173ffffffffffffffffffffffffffffffffffffffff021916908373ffffffffffffffffffffffffffffffffffffffff16021790555080156118a35760008060016101000a81548160ff0219169083151502179055507f7f26b83ff96e1f2b6a682f133852f6798a09c465da95921460cefb3847402498600160405161189a9190612a45565b60405180910390a15b50565b60006118be6103e8426118b99190612cfd565b612025565b6000600160008473ffffffffffffffffffffffffffffffffffffffff1673ffffffffffffffffffffffffffffffffffffffff168152602001908152602001600020905060008160020154905061191381612025565b806103e8426119229190612cfd565b11156119335760019250505061193a565b6000925050505b919050565b6000600260003373ffffffffffffffffffffffffffffffffffffffff1673ffffffffffffffffffffffffffffffffffffffff1681526020019081526020016000209050600073ffffffffffffffffffffffffffffffffffffffff168160000160009054906101000a900473ffffffffffffffffffffffffffffffffffffffff1673ffffffffffffffffffffffffffffffffffffffff161415611a16576040517f08c379a0000000000000000000000000000000000000000000000000000000008152600401611a0d90612a82565b60405180910390fd5b611a546040518060400160405280601f81526020017f2d2d2d2d2d2d2d2d2d2d2d2d2d2d2d2d2d2d2d2d2d2d2d2d2d2d2d2d2d2d2d008152506120be565b611a5d33612157565b611ac8600160008573ffffffffffffffffffffffffffffffffffffffff1673ffffffffffffffffffffffffffffffffffffffff16815260200190815260200160002060010160009054906101000a900473ffffffffffffffffffffffffffffffffffffffff16612157565b3373ffffffffffffffffffffffffffffffffffffffff16600160008573ffffffffffffffffffffffffffffffffffffffff1673ffffffffffffffffffffffffffffffffffffffff16815260200190815260200160002060010160009054906101000a900473ffffffffffffffffffffffffffffffffffffffff1673ffffffffffffffffffffffffffffffffffffffff1614611b98576040517f08c379a0000000000000000000000000000000000000000000000000000000008152600401611b8f90612b22565b60405180910390fd5b6000600160008573ffffffffffffffffffffffffffffffffffffffff1673ffffffffffffffffffffffffffffffffffffffff16815260200190815260200160002090508281600301541015611c19576040517f3d5f971800000000000000000000000000000000000000000000000000000000815260040160405180910390fd5b82816003016000828254611c2d9190612d57565b9250508190555060003390508073ffffffffffffffffffffffffffffffffffffffff166108fc859081150290604051600060405180830381858888f19350505050158015611c7f573d6000803e3d6000fd5b505050505050565b6000600260003373ffffffffffffffffffffffffffffffffffffffff1673ffffffffffffffffffffffffffffffffffffffff1681526020019081526020016000209050600073ffffffffffffffffffffffffffffffffffffffff168160000160009054906101000a900473ffffffffffffffffffffffffffffffffffffffff1673ffffffffffffffffffffffffffffffffffffffff1614611d5d576040517f08c379a0000000000000000000000000000000000000000000000000000000008152600401611d5490612ae2565b60405180910390fd5b81816002019080519060200190611d7592919061227d565b50338160000160006101000a81548173ffffffffffffffffffffffffffffffffffffffff021916908373ffffffffffffffffffffffffffffffffffffffff1602179055505050565b600080600160008473ffffffffffffffffffffffffffffffffffffffff1673ffffffffffffffffffffffffffffffffffffffff16815260200190815260200160002090508060030154915050919050565b60606000600260003373ffffffffffffffffffffffffffffffffffffffff1673ffffffffffffffffffffffffffffffffffffffff16815260200190815260200160002090506000600160003373ffffffffffffffffffffffffffffffffffffffff1673ffffffffffffffffffffffffffffffffffffffff1681526020019081526020016000209050600073ffffffffffffffffffffffffffffffffffffffff168260000160009054906101000a900473ffffffffffffffffffffffffffffffffffffffff1673ffffffffffffffffffffffffffffffffffffffff1614611f2d576040518060400160405280600681526020017f506172656e74000000000000000000000000000000000000000000000000000081525092505050611fff565b600073ffffffffffffffffffffffffffffffffffffffff168160000160009054906101000a900473ffffffffffffffffffffffffffffffffffffffff1673ffffffffffffffffffffffffffffffffffffffff1614611fc4576040518060400160405280600581526020017f4368696c6400000000000000000000000000000000000000000000000000000081525092505050611fff565b6040518060400160405280600c81526020017f556e726567697374657265640000000000000000000000000000000000000000815250925050505b90565b6000808273ffffffffffffffffffffffffffffffffffffffff163b119050919050565b6120bb816040516024016120399190612b86565b6040516020818303038152906040527ff82c50f1000000000000000000000000000000000000000000000000000000007bffffffffffffffffffffffffffffffffffffffffffffffffffffffff19166020820180517bffffffffffffffffffffffffffffffffffffffffffffffffffffffff83818316178352505050506121f0565b50565b612154816040516024016120d29190612a60565b6040516020818303038152906040527f41304fac000000000000000000000000000000000000000000000000000000007bffffffffffffffffffffffffffffffffffffffffffffffffffffffff19166020820180517bffffffffffffffffffffffffffffffffffffffffffffffffffffffff83818316178352505050506121f0565b50565b6121ed8160405160240161216b91906129b0565b6040516020818303038152906040527f2c2ecbc2000000000000000000000000000000000000000000000000000000007bffffffffffffffffffffffffffffffffffffffffffffffffffffffff19166020820180517bffffffffffffffffffffffffffffffffffffffffffffffffffffffff83818316178352505050506121f0565b50565b60008151905060006a636f6e736f6c652e6c6f679050602083016000808483855afa5050505050565b6040518060c00160405280600073ffffffffffffffffffffffffffffffffffffffff168152602001600073ffffffffffffffffffffffffffffffffffffffff1681526020016000815260200160008152602001600015158152602001606081525090565b82805461228990612e58565b90600052602060002090601f0160209004810192826122ab57600085556122f2565b82601f106122c457805160ff19168380011785556122f2565b828001600101855582156122f2579182015b828111156122f15782518255916020019190600101906122d6565b5b5090506122ff919061233a565b5090565b6040518060600160405280600073ffffffffffffffffffffffffffffffffffffffff16815260200160608152602001606081525090565b5b8082111561235357600081600090555060010161233b565b5090565b600061236a61236584612bc6565b612ba1565b90508281526020810184848401111561238257600080fd5b61238d848285612e16565b509392505050565b6000813590506123a4816130e4565b92915050565b600082601f8301126123bb57600080fd5b81356123cb848260208601612357565b91505092915050565b6000813590506123e3816130fb565b92915050565b6000602082840312156123fb57600080fd5b600061240984828501612395565b91505092915050565b6000806040838503121561242557600080fd5b600061243385828601612395565b9250506020612444858286016123d4565b9150509250929050565b60008060006060848603121561246357600080fd5b600061247186828701612395565b9350506020612482868287016123d4565b925050604084013567ffffffffffffffff81111561249f57600080fd5b6124ab868287016123aa565b9150509250925092565b6000602082840312156124c757600080fd5b600082013567ffffffffffffffff8111156124e157600080fd5b6124ed848285016123aa565b91505092915050565b60006020828403121561250857600080fd5b6000612516848285016123d4565b91505092915050565b600061252b838361255a565b60208301905092915050565b60006125438383612829565b905092915050565b61255481612d9d565b82525050565b61256381612d8b565b82525050565b61257281612d8b565b82525050565b600061258382612c17565b61258d8185612c52565b935061259883612bf7565b8060005b838110156125c95781516125b0888261251f565b97506125bb83612c38565b92505060018101905061259c565b5085935050505092915050565b60006125e182612c17565b6125eb8185612c63565b93506125f683612bf7565b8060005b8381101561262757815161260e888261251f565b975061261983612c38565b9250506001810190506125fa565b5085935050505092915050565b600061263f82612c22565b6126498185612c74565b93508360208202850161265b85612c07565b8060005b8581101561269757848403895281516126788582612537565b945061268383612c45565b925060208a0199505060018101905061265f565b50829750879550505050505092915050565b6126b281612daf565b82525050565b6126c181612daf565b82525050565b6126d081612df2565b82525050565b6126df81612e04565b82525050565b60006126f082612c2d565b6126fa8185612c85565b935061270a818560208601612e25565b61271381612f91565b840191505092915050565b600061272982612c2d565b6127338185612c96565b9350612743818560208601612e25565b61274c81612f91565b840191505092915050565b6000612764601783612c96565b915061276f82612fa2565b602082019050919050565b6000612787602e83612c96565b915061279282612fcb565b604082019050919050565b60006127aa601883612c96565b91506127b58261301a565b602082019050919050565b60006127cd601983612c96565b91506127d882613043565b602082019050919050565b60006127f0602383612c96565b91506127fb8261306c565b604082019050919050565b6000612813602083612c96565b915061281e826130bb565b602082019050919050565b600060c083016000830151612841600086018261254b565b506020830151612854602086018261254b565b5060408301516128676040860182612992565b50606083015161287a6060860182612992565b50608083015161288d60808601826126a9565b5060a083015184820360a08601526128a582826126e5565b9150508091505092915050565b600060c0830160008301516128ca600086018261254b565b5060208301516128dd602086018261254b565b5060408301516128f06040860182612992565b5060608301516129036060860182612992565b50608083015161291660808601826126a9565b5060a083015184820360a086015261292e82826126e5565b9150508091505092915050565b6000606083016000830151612953600086018261254b565b506020830151848203602086015261296b8282612578565b9150506040830151848203604086015261298582826126e5565b9150508091505092915050565b61299b81612ddb565b82525050565b6129aa81612ddb565b82525050565b60006020820190506129c56000830184612569565b92915050565b600060208201905081810360008301526129e581846125d6565b905092915050565b60006020820190508181036000830152612a078184612634565b905092915050565b6000602082019050612a2460008301846126b8565b92915050565b6000602082019050612a3f60008301846126c7565b92915050565b6000602082019050612a5a60008301846126d6565b92915050565b60006020820190508181036000830152612a7a818461271e565b905092915050565b60006020820190508181036000830152612a9b81612757565b9050919050565b60006020820190508181036000830152612abb8161277a565b9050919050565b60006020820190508181036000830152612adb8161279d565b9050919050565b60006020820190508181036000830152612afb816127c0565b9050919050565b60006020820190508181036000830152612b1b816127e3565b9050919050565b60006020820190508181036000830152612b3b81612806565b9050919050565b60006020820190508181036000830152612b5c81846128b2565b905092915050565b60006020820190508181036000830152612b7e818461293b565b905092915050565b6000602082019050612b9b60008301846129a1565b92915050565b6000612bab612bbc565b9050612bb78282612e8a565b919050565b6000604051905090565b600067ffffffffffffffff821115612be157612be0612f62565b5b612bea82612f91565b9050602081019050919050565b6000819050602082019050919050565b6000819050602082019050919050565b600081519050919050565b600081519050919050565b600081519050919050565b6000602082019050919050565b6000602082019050919050565b600082825260208201905092915050565b600082825260208201905092915050565b600082825260208201905092915050565b600082825260208201905092915050565b600082825260208201905092915050565b6000612cb282612ddb565b9150612cbd83612ddb565b9250827fffffffffffffffffffffffffffffffffffffffffffffffffffffffffffffffff03821115612cf257612cf1612f04565b5b828201905092915050565b6000612d0882612ddb565b9150612d1383612ddb565b9250817fffffffffffffffffffffffffffffffffffffffffffffffffffffffffffffffff0483118215151615612d4c57612d4b612f04565b5b828202905092915050565b6000612d6282612ddb565b9150612d6d83612ddb565b925082821015612d8057612d7f612f04565b5b828203905092915050565b6000612d9682612dbb565b9050919050565b6000612da882612dbb565b9050919050565b60008115159050919050565b600073ffffffffffffffffffffffffffffffffffffffff82169050919050565b6000819050919050565b600060ff82169050919050565b6000612dfd82612ddb565b9050919050565b6000612e0f82612de5565b9050919050565b82818337600083830152505050565b60005b83811015612e43578082015181840152602081019050612e28565b83811115612e52576000848401525b50505050565b60006002820490506001821680612e7057607f821691505b60208210811415612e8457612e83612f33565b5b50919050565b612e9382612f91565b810181811067ffffffffffffffff82111715612eb257612eb1612f62565b5b80604052505050565b6000612ec682612ddb565b91507fffffffffffffffffffffffffffffffffffffffffffffffffffffffffffffffff821415612ef957612ef8612f04565b5b600182019050919050565b7f4e487b7100000000000000000000000000000000000000000000000000000000600052601160045260246000fd5b7f4e487b7100000000000000000000000000000000000000000000000000000000600052602260045260246000fd5b7f4e487b7100000000000000000000000000000000000000000000000000000000600052604160045260246000fd5b6000601f19601f8301169050919050565b7f54686572655f49735f4e6f5f537563685f506172656e74000000000000000000600082015250565b7f496e697469616c697a61626c653a20636f6e747261637420697320616c72656160008201527f647920696e697469616c697a6564000000000000000000000000000000000000602082015250565b7f546869735f4368696c645f416c72656164795f45786973740000000000000000600082015250565b7f546869735f506172656e745f416c72656164795f457869737400000000000000600082015250565b7f5468657265206973206e6f206368696c6420776974682074686973206164647260008201527f6573730000000000000000000000000000000000000000000000000000000000602082015250565b7f546869735f6368696c645f69735f6e6f745f62656c6f6e67735f706172656e74600082015250565b6130ed81612d9d565b81146130f857600080fd5b50565b61310481612ddb565b811461310f57600080fd5b5056fea2646970667358221220004b427f11e69ec2b9aae01a49d144fe25f77a37b468ea62b19a2cab6524d17364736f6c63430008040033",
  "devdoc": {
    "kind": "dev",
    "methods": {},
    "version": 1
  },
  "userdoc": {
    "kind": "user",
    "methods": {},
    "version": 1
  },
  "storageLayout": {
    "storage": [
      {
        "astId": 6,
        "contract": "contracts/interFi.sol:InterFi",
        "label": "_initialized",
        "offset": 0,
        "slot": "0",
        "type": "t_uint8"
      },
      {
        "astId": 9,
        "contract": "contracts/interFi.sol:InterFi",
        "label": "_initializing",
        "offset": 1,
        "slot": "0",
        "type": "t_bool"
      },
      {
        "astId": 415,
        "contract": "contracts/interFi.sol:InterFi",
        "label": "owner",
        "offset": 2,
        "slot": "0",
        "type": "t_address"
      },
      {
        "astId": 441,
        "contract": "contracts/interFi.sol:InterFi",
        "label": "addressToChild",
        "offset": 0,
        "slot": "1",
        "type": "t_mapping(t_address,t_struct(Child)436_storage)"
      },
      {
        "astId": 446,
        "contract": "contracts/interFi.sol:InterFi",
        "label": "addressToParent",
        "offset": 0,
        "slot": "2",
        "type": "t_mapping(t_address,t_struct(Parent)423_storage)"
      }
    ],
    "types": {
      "t_address": {
        "encoding": "inplace",
        "label": "address",
        "numberOfBytes": "20"
      },
      "t_address_payable": {
        "encoding": "inplace",
        "label": "address payable",
        "numberOfBytes": "20"
      },
      "t_array(t_address)dyn_storage": {
        "base": "t_address",
        "encoding": "dynamic_array",
        "label": "address[]",
        "numberOfBytes": "32"
      },
      "t_bool": {
        "encoding": "inplace",
        "label": "bool",
        "numberOfBytes": "1"
      },
      "t_mapping(t_address,t_struct(Child)436_storage)": {
        "encoding": "mapping",
        "key": "t_address",
        "label": "mapping(address => struct InterFi.Child)",
        "numberOfBytes": "32",
        "value": "t_struct(Child)436_storage"
      },
      "t_mapping(t_address,t_struct(Parent)423_storage)": {
        "encoding": "mapping",
        "key": "t_address",
        "label": "mapping(address => struct InterFi.Parent)",
        "numberOfBytes": "32",
        "value": "t_struct(Parent)423_storage"
      },
      "t_string_storage": {
        "encoding": "bytes",
        "label": "string",
        "numberOfBytes": "32"
      },
      "t_struct(Child)436_storage": {
        "encoding": "inplace",
        "label": "struct InterFi.Child",
        "members": [
          {
            "astId": 425,
            "contract": "contracts/interFi.sol:InterFi",
            "label": "Address",
            "offset": 0,
            "slot": "0",
            "type": "t_address_payable"
          },
          {
            "astId": 427,
            "contract": "contracts/interFi.sol:InterFi",
            "label": "invester",
            "offset": 0,
            "slot": "1",
            "type": "t_address_payable"
          },
          {
            "astId": 429,
            "contract": "contracts/interFi.sol:InterFi",
            "label": "releaseTime",
            "offset": 0,
            "slot": "2",
            "type": "t_uint256"
          },
          {
            "astId": 431,
            "contract": "contracts/interFi.sol:InterFi",
            "label": "amount",
            "offset": 0,
            "slot": "3",
            "type": "t_uint256"
          },
          {
            "astId": 433,
            "contract": "contracts/interFi.sol:InterFi",
            "label": "isReleasable",
            "offset": 0,
            "slot": "4",
            "type": "t_bool"
          },
          {
            "astId": 435,
            "contract": "contracts/interFi.sol:InterFi",
            "label": "name",
            "offset": 0,
            "slot": "5",
            "type": "t_string_storage"
          }
        ],
        "numberOfBytes": "192"
      },
      "t_struct(Parent)423_storage": {
        "encoding": "inplace",
        "label": "struct InterFi.Parent",
        "members": [
          {
            "astId": 417,
            "contract": "contracts/interFi.sol:InterFi",
            "label": "Address",
            "offset": 0,
            "slot": "0",
            "type": "t_address_payable"
          },
          {
            "astId": 420,
            "contract": "contracts/interFi.sol:InterFi",
            "label": "children",
            "offset": 0,
            "slot": "1",
            "type": "t_array(t_address)dyn_storage"
          },
          {
            "astId": 422,
            "contract": "contracts/interFi.sol:InterFi",
            "label": "name",
            "offset": 0,
            "slot": "2",
            "type": "t_string_storage"
          }
        ],
        "numberOfBytes": "96"
      },
      "t_uint256": {
        "encoding": "inplace",
        "label": "uint256",
        "numberOfBytes": "32"
      },
      "t_uint8": {
        "encoding": "inplace",
        "label": "uint8",
        "numberOfBytes": "1"
      }
    }
  }
}